:020000040000FA
:0400000057EF00F0C6
:1000080020072207220722072207220722072407A0
:1000180022072207220722072207ED064703DA03F1
:10002800280722072207220722072207220722077A
:100038002207220722072207220722072207220770
:1000480022072207220726072B002207220722075A
:100058002207220722072207220722072207220750
:100068002207220722072207220722072207220740
:10007800220722072B002207220722072B002B002A
:100088002B002B002B002B002B002B003006220707
:1000980022072207220722072B002B002B002B0008
:1000A80022072207FF009AEF0CF0000E3A01586F62
:1000B800BE9FC00E3F01BA17E00EBC1300F0000E41
:1000C80000017D6F050E7D656CEF00F06EEF00F0AE
:1000D80072EF00F0A2EF00F0A2EF00F03F0E3F0138
:1000E800BA13C3693A01516900017D51010DF90E36
:1000F800F324F66E7F0EF420F76E0800F5503F01EA
:10010800BA1700F000F000F000F000017D51010D79
:10011800180EF324D96E000EF420DA6E3F01CB518D
:10012800FF0ADF6E00017D2B050E7D659EEF00F056
:10013800A0EF00F072EF00F0A2EF00F03F0E3F01D9
:10014800BA13000E3A01516F000E3F01C36F000E43
:1001580000017D6F050E7D65B4EF00F0B6EF00F08D
:10016800BAEF00F019EF01F019EF01F07D51010D20
:10017800180EF324D96E000EF420DA6EDF507B6F70
:10018800000E7A6FDDEF00F07BA1CDEF00F0CFEF2E
:1001980000F0D7EF00F07D51080DF3507A25B1EC4F
:1001A80009F0D7EF00F00001D8907B337A2BDDEF10
:1001B80000F07B51D8A4E3EF00F0E5EF00F0C8EFC2
:1001C80000F0E7EF00F07D2B050E7D65EEEF00F007
:1001D800F0EF00F0BAEF00F019EF01F019EF01F0BD
:1001E800000E7D6F050E7D65FCEF00F0FEEF00F060
:1001F80002EF01F019EF01F019EF01F07D51010D47
:10020800180EF324D96E000EF420DA6E000EDF6E9D
:100218007D2B050E7D6513EF01F015EF01F002EF60
:1002280001F019EF01F019EF01F03F0E3F01BA1389
:10023800000E00017E6F020E7E6525EF01F027EFAC
:1002480001F02BEF01F02BEF02F02BEF02F07E51C3
:10025800050D020EF326000EF422010EF324D96ECA
:10026800000EF420DA6EDE28D8B43DEF01F03FEF3F
:1002780001F021EF02F07E51050D020EF326000E6B
:10028800F422010EF324D96E000EF420DA6EDF504A
:10029800756F070E75177E51050D020EF326000EB9
:1002A800F422010EF324D96E000EF420DA6EDF502A
:1002B800766FD8907633D8907633D8907631776F3A
:1002C800786B180E7725D96E000E7821DA6EDF501C
:1002D800796F752B72EF01F0D8907933752F70EF25
:1002E80001F0000179A17BEF01F07DEF01F0C1EF92
:1002F80001F07E51050D010EF324D96E000EF42095
:10030800DA6E140EDE18D8A48CEF01F08EEF01F02F
:10031800B4EF01F07E51050D010EF326000EF42214
:10032800010EF324D96E000EF420DA6EDF50D8A443
:10033800A0EF01F0A2EF01F021EF02F07E51050DD0
:10034800010EF326000EF422010EF324D96E000EDE
:10035800F420DA6E010EDF6E21EF02F021EF02F0D9
:100368007E51050D010EF324D96E000EF420DA6ECD
:10037800DF2A21EF02F021EF02F07E51050D010E78
:10038800F324D96E000EF420DA6EDF50D8A4CFEF34
:1003980001F0D1EF01F0E4EF01F07E51050D010EFF
:1003A800F326000EF422010EF324D96E000EF42079
:1003B800DA6E000EDF6E7E51C3EC08F021EF02F01A
:1003C80000017E51050D010EF324D96E000EF420B4
:1003D800DA6E140EDE18D8A4F4EF01F0F6EF01F08F
:1003E80010EF02F07E51050D010EF324D96E000EB8
:1003F800F420DA6E0A0EDF6E7E51050D010EF3262B
:10040800000EF422010EF324D96E000EF420DA6EE9
:10041800000EDF6E21EF02F07E51050D010EF32470
:10042800D96E000EF420DA6EDF0621EF02F021EF1C
:1004380002F021EF02F021EF02F000017E2B020E04
:100448007E6529EF02F02BEF02F02BEF01F0600040
:1004580018F17EF0000E7C6F7AEF02F07E51050DE8
:10046800010EF326000EF422010EF324D96E000EBD
:10047800F420DA6EDF50D8B444EF02F046EF02F011
:100488006AEF02F0030E7C614CEF02F04EEF02F0CF
:100498006AEF02F07E51050D020EF326000EF422DB
:1004A800010EF324D96E000EF420DA6E7C51010D92
:1004B800960EF324E16E000EF420E26E6F007FFFCB
:1004C800E7FF7C2B6AEF02F06AEF02F07E51050D20
:1004D800040EF326000EF422010EF324D96E000E4A
:1004E800F420DA6EDF507E6F7AEF02F07E29D8A40E
:1004F80080EF02F082EF02F032EF02F06000F0F1DC
:100508009BF0020E7C658BEF02F08DEF02F091EF0D
:1005180002F0A6EF02F0A6EF02F07C51010D960E54
:10052800F324D96E000EF420DA6E000EDF6E7C2BF9
:10053800020E7C65A2EF02F0A4EF02F091EF02F048
:10054800A6EF02F012002EEC0EF038EC0EF015ECCF
:100558000EF0AFEF02F0000E0201326F030E000141
:10056800BD65B9EF02F0BBEF02F0DBEF02F011500E
:10057800121010100009D8B4C4EF02F0C6EF02F050
:10058800CEEF02F0000ED3EC0CF03901D88F030047
:10059800E0EF02F07EEC0DF0000E00019A6F000E05
:1005A800BD6F3901A88DE0EF02F0E0EF02F03901EC
:1005B800D88F0300E0EF02F000019B51D8B4E7EFB9
:1005C80002F0E9EF02F03BEF04F0000EBD6F010E00
:1005D800D3EC0CF03BEF04F03BEF04F01F0E0001EE
:1005E800836F000E846F04EC0DF00201356F080E66
:1005F800356101EF03F003EF03F044EF03F000016E
:100608009A51D8B40AEF03F00CEF03F03BEF04F073
:100618009AA111EF03F013EF03F022EF03F0D89043
:100628009A310201286F296B9D0E2825D96E000E7C
:100638002921DA6E3551DF1234EF03F00001D8902A
:100648009A310201286F296B9D0E2825D96E000E5C
:100658002921DA6E3539E842F80BDF6E34EF03F002
:10066800140E00019A613BEF03F03DEF03F03BEFFE
:1006780004F09A2B3BEF04F03BEF04F03BEF04F05F
:10068800090E02013519D8A44CEF03F04EEF03F020
:1006980078EF03F0000E336F050E336556EF03F065
:1006A80058EF03F05CEF03F071EF03F071EF03F024
:1006B8003351010D9D0EF324D96E000EF420DA6E2D
:1006C800FF0EDF6E332B050E33656DEF03F06FEF12
:1006D80003F05CEF03F071EF03F0000E00019D6F73
:1006E800010E9A6F3BEF04F00A0E02013519D8A4E7
:1006F80080EF03F082EF03F030EF04F000019AA1DD
:1007080088EF03F08AEF03F02BEF04F0D8909A31CA
:100718000201286F296B9D0E2825D96E000E29210C
:10072800DA6EDF502A6FD8902A33D8902A33D890BF
:100738002A312C6F9E0E0001836F000E846F6000BB
:1007480068F228F20201D890283328050001856F45
:100758009D0E9BEC0BF002012D6F0001D8909A3191
:100768000201286F296B9D0E2825D96E000E2921BC
:10077800DA6EDF502A6FD8902A33D8902A33D8906F
:100788002A339E0E0001836F000E846F600068F2AA
:100798002BF20201D8902B332B050001856F9D5158
:1007A8009BEC0BF002012A19D8A4DDEF03F0DFEF70
:1007B80003F02BEF04F00CEF04F00CEF04F0010E43
:1007C800326F000E00019C6F2BEF04F000019E3980
:1007D800E8461F0B070B0201286F296B100E28250E
:1007E800D96E000E2921DA6E600078F22AF2070E1F
:1007F8002A17060E2B6FD8902A372B2FFFEF03F0FE
:100808002A5100019F11DF6E2BEF04F02BEF04F04B
:1008180000019D510201286F296B2951000AD8B4A3
:1008280018EF04F02BEF04F02851020AD8B4E3EFD4
:1008380003F0040AD8B4EAEF03F02BEF04F02BEF2F
:1008480004F02BEF04F02BEF04F02BEF04F0000E74
:1008580000019A6F3BEF04F0000E00019A6F3BEF26
:1008680004F03BEF04F03BEF04F03BEF04F02150C1
:100878002218D8A442EF04F044EF04F0F2EF02F09B
:1008880046EF04F002013251D8B44DEF04F04FEFB7
:1008980004F0ACEF04F0000E326F00019B51D8A4B5
:1008A80058EF04F05AEF04F062EF04F0040EBD6153
:1008B80060EF04F062EF04F0ACEF04F03901989DAA
:1008C800000E0201346F030E34656DEF04F06FEF14
:1008D80004F073EF04F08FEF04F08FEF04F034515D
:1008E800010D960EF324D96E000EF420DA6E345101
:1008F800010D2E0EF324E16E020EF420E26E6F005D
:100908007FFFE7FF342B030E34658DEF04F08FEF84
:1009180004F073EF04F03901988D2E0E00018C6FEE
:10092800020E8D6F60006CF28EF0040ECAEC04F0BB
:1009380000019B51D8A4A3EF04F0A5EF04F0ACEF9D
:1009480004F0BD2BACEF04F0ACEF04F0ACEF04F016
:10095800200E00019C65B3EF04F0B5EF04F0AFEF93
:1009680002F09B51D8A4BBEF04F0BDEF04F0AFEF49
:1009780002F0000E9C6FBD2BAFEF02F0AFEF02F05C
:10098800AFEF02F0AFEF02F057EF00F00201246F73
:100998003901919B919D919F000E0201266F000ED7
:1009A800256FE80E255D030E2659D8A0DEEF04F06A
:1009B800E0EF04F0E4EF04F0F5EF04F0F5EF04F0F5
:1009C80000F00201254B262BE80E255D030E265963
:1009D800D8A0F1EF04F0F3EF04F0E4EF04F0F5EF42
:1009E80004F0600090F88FF0070E00018F178F5108
:1009F800030D250EF3240201006F000EF420016F91
:100A0800000E276FA1EF05F02751020DD890F3369D
:100A1800F436000EF324D96E020EF420DA6E6F005D
:100A280078FF8FF06F0074FF90F02751010DF3509D
:100A380000018C25D96EF4508D21DA6EDF50916F4C
:100A4800D8909133D8909133D89091339151030D28
:100A58008F51F3269051F422050EF326000EF4224E
:100A6800020127510001926F936BD8909237933708
:100A7800D89092379337020E9227000E9323000ED8
:100A88009225D96E020E9321DA6E6F00CFFFDEFF3A
:100A98006F00D3FFDDFF0201275100018F6F906BBC
:100AA800D8908F379037D8908F379037020E8F278E
:100AB800000E9023000E8F25D96E020E9021DA6E5B
:100AC8006F0078FF91F06F0074FF92F002012751D8
:100AD800010DF35000018C25D96EF4508D21DA6E8A
:100AE800DF50936F070E93179351030D9151F3261F
:100AF8009251F422050EF326000EF422020127512A
:100B08000001946F956BD89094379537D8909437A7
:100B18009537040E9427000E9523000E9425D96E60
:100B2800020E9521DA6E6F00CFFFDEFF6F00D3FF54
:100B3800DDFF0201272BA1EF05F000018E51020114
:100B4800275DD8A0AAEF05F0ACEF05F008EF05F097
:100B5800AEEF05F000018E51020DD890F336F43651
:100B6800000EF324D96E020EF420DA6E6F0078FFBF
:100B78008FF06F0074FF90F0600030F283F0600037
:100B880034F284F0600038F285F0020124519BECC5
:100B98000BF00001916F9151030D8F51F326905185
:100BA800F422050EF326000EF4228E51926F936BF9
:100BB800D89092379337D89092379337020E92276E
:100BC800000E9323000E9225D96E020E9321DA6E41
:100BD8006F00CFFFDEFF6F00D3FFDDFF8E518F6FF9
:100BE800906BD8908F379037D8908F379037020E08
:100BF8008F27000E9023000E8F25D96E020E9021AC
:100C0800DA6E6F0078FF91F06F0074FF92F0230E98
:100C18009127000E92238E51936F946BD89093373F
:100C28009437D89093379437040E9327000E942363
:100C3800000E9325D96E020E9421DA6E600047F2F9
:100C4800DEFF60004BF2DDFF000E3B01FC6F000E83
:100C5800F96F020EFA6F000EFB6F3F0EF16F7C0EFC
:100C6800F06F430EFD6F00018E51040D060EF32444
:100C78003B01F76F000EF420F86F000EEF6F020EC5
:100C8800EE6F230EFF6F000E3F017D6F200E7C6F0D
:100C9800A569A469AA693C0175857595FA8F3F0114
:100CA8007E8FA6813B01FC8FFC8D3F017E51F00BAE
:100CB80009097E6FAC8F7E51F00B02097E6FBA8DE9
:100CC8003901A291D881D883D885D88BD889D88D75
:100CD8006EEF06F0A2A173EF06F075EF06F06EEF67
:100CE80006F03C01FA9F3901A497D89D7CEF06F0E5
:100CF800A4A781EF06F083EF06F07CEF06F0D89DFD
:100D08003F017E9FA691AC9FBA9D3901A19F918F0B
:020D18001200C7
:100D1C003F01BA8D000E416E000E426E000E436E06
:100D2C00000E446E40683901A19D3F011551416E82
:100D3C001651426E1751436E446A600004F134F050
:100D4C00600008F135F060000CF136F0600010F135
:100D5C0037F0380E386E000E396E000E3A6E000EFB
:100D6C003B6E22EC0CF06000D0F041F06000D4F04F
:100D7C0042F06000D8F043F06000DCF044F04450E6
:100D8C00431009E1C00E415CDA0E4258D8B0D1EFE5
:100D9C0006F0D3EF06F0D6EF06F0406896EF07F0BA
:100DAC0044500BE1400E415C960E4258010E4358E4
:100DBC00D8B0E3EF06F0E5EF06F0E9EF06F0000E31
:100DCC00406E96EF07F044500BE1C00E415C510EA3
:100DDC004258020E4358D8B0F6EF06F0F8EF06F082
:100DEC00FCEF06F0010E406E96EF07F044500BE15D
:100DFC00400E415C0D0E4258030E4358D8B009EF1B
:100E0C0007F00BEF07F00FEF07F0020E406E96EFB6
:100E1C0007F044500BE1C00E415CC80E4258030E63
:100E2C004358D8B01CEF07F01EEF07F022EF07F085
:100E3C00030E406E96EF07F044500BE1400E415C00
:100E4C00840E4258040E4358D8B02FEF07F031EF00
:100E5C0007F035EF07F0040E406E96EF07F04450A4
:100E6C000BE1C00E415C3F0E4258050E4358D8B002
:100E7C0042EF07F044EF07F048EF07F0050E406E25
:100E8C0096EF07F044500BE1400E415CFB0E4258CC
:100E9C00050E4358D8B055EF07F057EF07F05BEF4E
:100EAC0007F0060E406E96EF07F044500BE1C00EB3
:100EBC00415CB60E4258060E4358D8B068EF07F0A6
:100ECC006AEF07F06EEF07F0070E406E96EF07F033
:100EDC0044500BE1C00E415C2D0E4258080E435895
:100EEC00D8B07BEF07F07DEF07F080EF07F040689C
:100EFC0096EF07F00A0E406E96EF07F096EF07F0AC
:100F0C0096EF07F096EF07F096EF07F096EF07F0E5
:100F1C0096EF07F096EF07F096EF07F096EF07F0D5
:100F2C001F0E00016C6F000E6D6F600000F16EF013
:100F3C0056EC0DF0A2EF07F03901919BFF0E3F012B
:100F4C001B6FFF0E1C6FFF0E1D6F3901A19F918F40
:0A0F5C003F01BA9D3901D899110038
:100F68003F01BA8D000E306E000E316E000E326EEB
:100F7800000E336E2F683901A19F3F011851306E62
:100F88001951316E1A51326E336A6000C0F034F074
:100F98006000C4F035F06000C8F036F06000CCF0B6
:100FA80037F0380E386E000E396E000E3A6E000EAD
:100FB8003B6E22EC0CF06000D0F030F06000D4F012
:100FC80031F06000D8F032F06000DCF033F03350DC
:100FD800321009E1C00E305CDA0E3158D8B0F7EFA4
:100FE80007F0F9EF07F0FCEF07F02F68A8EF08F01B
:100FF80033500BE1400E305C960E3158010E3258DA
:10100800D8B009EF08F00BEF08F00FEF08F0000E6A
:101018002F6EA8EF08F033500BE1C00E305C510E74
:101028003158020E3258D8B01CEF08F01EEF08F005
:1010380022EF08F0010E2F6EA8EF08F033500BE1F5
:10104800400E305C0D0E3158030E3258D8B02FEFD9
:1010580008F031EF08F035EF08F0020E2F6EA8EF18
:1010680008F033500BE1C00E305CC80E3158030E47
:101078003258D8B042EF08F044EF08F048EF08F0D3
:10108800030E2F6EA8EF08F033500BE1400E305CD2
:10109800840E3158040E3258D8B055EF08F057EF87
:1010A80008F05BEF08F0040E2F6EA8EF08F033503D
:1010B8000BE1C00E305C3F0E3158050E3258D8B0E7
:1010C80068EF08F06AEF08F06EEF08F0050E2F6E73
:1010D800A8EF08F033500BE1400E305CFB0E31589E
:1010E800050E3258D8B07BEF08F07DEF08F081EF9D
:1010F80008F0060E2F6EA8EF08F033500BE1C00E73
:10110800305CB60E3158060E3258D8B08EEF08F063
:1011180090EF08F094EF08F0070E2F6EA8EF08F094
:10112800090E2F6EA8EF08F0A8EF08F0A8EF08F056
:10113800A8EF08F0A8EF08F0A8EF08F0A8EF08F06B
:10114800A8EF08F0A8EF08F01F0E00016C6F000E62
:101158006D6F6000BCF06EF056EC0DF0BC0E3F01F8
:101168001B6F280E1C6F000E1D6F3901A19B918B00
:10117800A19D918D3F01BA9D3901D89911000001B7
:10118800736F00017351050D010EF326000EF42252
:10119800010EF324D96E000EF420DA6E000EDF6E15
:1011A8007351050D020EF326000EF422010EF324EE
:1011B800D96E000EF420DA6EFF0EDF6E7351050D46
:1011C800040EF326000EF422010EF324D96E000E4D
:1011D800F420DA6EDE28D8A4F4EF08F0F6EF08F071
:1011E8001EEF09F07351050D030EF326000EF422CD
:1011F800010EF324D96E000EF420DA6EDF50456E2E
:101208004528D8B40AEF09F00CEF09F049EF09F0C6
:101218004550050D040EF326000EF422010EF324AA
:10122800D96E000EF420DA6EFF0EDF6E49EF09F07A
:1012380049EF09F07351050D030EF326000EF42251
:10124800010EF324D96E000EF420DA6E7351050DE9
:10125800040EF326000EF422010EF324E16E000EB4
:10126800F420E26EE750726F7251050D030EF326FB
:10127800000EF422010EF324E16E000EF420E26E5B
:101288006F007FFFE7FF49EF09F07351050D030E6B
:10129800F326000EF422010EF324D96E000EF4207A
:1012A800DA6EDE28D8A45BEF09F05DEF09F085EF70
:1012B80009F07351050D040EF326000EF422010EF9
:1012C800F324D96E000EF420DA6EDF50466E4628FD
:1012D800D8B471EF09F073EF09F0B0EF09F0465098
:1012E800050D030EF326000EF422010EF324D96E29
:1012F800000EF420DA6EFF0EDF6EB0EF09F0B0EFEB
:1013080009F07351050D040EF326000EF422010EA8
:10131800F324D96E000EF420DA6E7351050D030E16
:10132800F326000EF422010EF324E16E000EF420E1
:10133800E26EE750726F7251050D040EF326000E2F
:10134800F422010EF324E16E000EF420E26E6F0029
:101358007FFFE7FFB0EF09F012000001736F000E86
:101368000001746F020E7465BCEF09F0BEEF09F05E
:10137800C2EF09F0E6EF09F0E6EF09F07451050D48
:10138800020EF326000EF422010EF324D96E000E8D
:10139800F420DA6E7351DE18D8A4D5EF09F0D7EF30
:1013A80009F0DBEF09F08AEF0AF08AEF0AF0742BF4
:1013B800020E7465E2EF09F0E4EF09F0C2EF09F0FC
:1013C800E6EF09F0000E746F020E7465EEEF09F097
:1013D800F0EF09F0F4EF09F08AEF0AF08AEF0AF06B
:1013E8007451050D020EF326000EF422010EF324AB
:1013F800D96E000EF420DA6EDE28D8A406EF0AF0C3
:1014080008EF0AF07FEF0AF07451050D020EF3267B
:10141800000EF422010EF324D96E000EF420DA6EC9
:101428006000CFF1DFFF7451050D010EF324D96E72
:10143800000EF420DA6E0A0EDF6E7451050D010EEF
:10144800F326000EF422010EF324D96E000EF420C8
:10145800DA6E010EDF6E7451050D040EF326000ED0
:10146800F422010EF324D96E000EF420DA6EFF0E7A
:10147800DF6E4628D8A443EF0AF045EF0AF058EF8C
:101488000AF06000D0F146F07451050D030EF32602
:10149800000EF422010EF324D96E000EF420DA6E49
:1014A800FF0EDF6E78EF0AF04550050D040EF326A7
:1014B800000EF422010EF324D96E000EF420DA6E29
:1014C8006000D3F1DFFF7451050D030EF326000E03
:1014D800F422010EF324D96E000EF420DA6E6000B7
:1014E80017F1DFFF78EF0AF06000D0F145F08AEFDE
:1014F8000AF08AEF0AF0742B020E746586EF0AF080
:1015080088EF0AF0F4EF09F08AEF0AF01200000EF3
:101518000001886F86BF95EF0AF093EF0AF09DEF00
:101528000AF0856D861FD8B0862B010E886F9DEF57
:101538000AF084BFA4EF0AF0A2EF0AF0ACEF0AF0B9
:10154800836D841FD8B0842B010E881BACEF0AF082
:10155800000E8A6F000E896F85518611D8B4B7EFD7
:101568000AF0B9EF0AF0EDEF0AF0010E876FC3EF4A
:101578000AF0D89085378637872BC3EF0AF086AFF5
:10158800C8EF0AF0CAEF0AF0BDEF0AF0CEEF0AF092
:10159800CEEF0AF0D89089378A378551835D865116
:1015A8008459D8A0DAEF0AF0DCEF0AF0E3EF0AF08A
:1015B8008551835F8651845B8981E3EF0AF0D89077
:1015C80086338533872FCEEF0AF0EDEF0AF0EDEF83
:1015D8000AF08851D8B4F3EF0AF0F5EF0AF0FBEF00
:1015E8000AF0896D8A1FD8B08A2BFBEF0AF06000D9
:1015F80024F283F0600028F284F003EF0BF012006D
:10160800010E3F01AE6F040EAF6F8E0EAB6F800EF2
:10161800AC6F5F51FC0B01095F6F800E6E6F6F003E
:10162800ACFE83F00001846B000E866F020E856F9E
:101638008BEC0AF0000183513F016D6F000E3C01F5
:10164800756F180E766F240E776F020E7A6F040E80
:101658007B6F000E7C6F000E7D6F840E746F000E22
:101668003F01A56F000EA46F0D0EA96F060EA66FA1
:101678005E51FC0B02095E6F000E3C01FA6F000E12
:10168800FB6F1F0EFD6F080EFE6F020EFC6F000E43
:101698003A01D76F280E126F12000001766F000E04
:1016A8003A01586F00017251D8A45DEF0BF061EF59
:1016B8000BF0736B732B63EF0BF00001736B7333D9
:1016C80073333A01BE51000173197F0B73193A0144
:1016D800BE6F6000CBF158FAE00E3F01BC1360000A
:1016E800CBF1BBFF000EC36F020E000176657FEFE2
:1016F8000BF081EF0BF085EF0BF0020E766F85EFA4
:101708000BF06000D8F173F0800E746F000E756FE7
:10171800732B92EF0BF0753575337433732F8FEF8E
:101728000BF000017451FF0A3F01BC1712000001C1
:10173800896F600024F28BF0000E00018A6FB2EF0F
:101748000BF08A51010DF3508325D96EF450842192
:10175800DA6EDF508B1B8A2BB2EF0BF085518A5D56
:10176800D8A0B9EF0BF0BBEF0BF0A5EF0BF0BDEF76
:101778000BF08B39E8461F0B8B19070B8B6F60003A
:101788002CF286F0D8908633D8908633010E8617CF
:1017980060002CF287F0020E871760002CF288F0A8
:1017A800010E8817D8908837D89088358711861108
:1017B800DEEF0BF01200000E3A01406F3F0E3F01C2
:1017C800BA6F000EC26F000E3A01416F000E426FF1
:1017D800000E436F4469000E486F000E496F000EFB
:1017E800506F000E3F01BB6F000EC36F000E3A0131
:1017F800516F000E526F000E536F5469000E586FF0
:10180800000E596F000E606F0E0E3F01BC6F100E78
:10181800C46F000E3A01616F000E626F000E636FB5
:101828006469000E686F000E696F080E816F080EFC
:10183800846F030EBE6F280E076F1200000E3C6EF9
:10184800000E3D6E000E3E6E000E3F6E2CEF0CF04B
:1018580034A031EF0CF033EF0CF03DEF0CF03850C2
:101868003C2639503D223A503E223B503F223DEF24
:101878000CF0D890383639363A363B36D89037326D
:101888003632353234323450351036103710D8A449
:1018980050EF0CF052EF0CF02CEF0CF06000F0F071
:1018A80034F06000F4F035F06000F8F036F06000D5
:0618B800FCF037F0120005
:1018C0006F00D8FF7FF06F00DCFF80F06F00E0FF5B
:1018D00081F06F00D4FF82F03901A89D59EC00F02F
:1018E0001E50010D100EF324D96E000EF420DA6E96
:1018F000DF500001726F1E5051EC0BF01E2A020ED9
:101900001E6485EF0CF087EF0CF08BEF0CF0000EEF
:101910001E6E8BEF0CF000019C2B60000BF2F5FFAC
:10192000600007F2F8FF600003F2F7FF6000FFF1CC
:10193000F6FF1100A80EF66E1C0EF76E000EF86E84
:1019400009006F00D4FFBDF0A60EF66E1C0EF76EF8
:10195000000EF86E09006F00D4FF45F009006F001B
:10196000D4FF46F000EE00F110EE00F1EE6AE55013
:10197000E150FCE1E250FAE100EE96F0270EEE6A4B
:10198000E806FDE100EE01F0220EEE6AE806FDE158
:10199000080ED56E000ED66E000ED76E000EF86ED5
:1019A0000001A7EF02F00001836F00018351D8B45A
:1019B000DCEF0CF0DEEF0CF0FDEF0CF03F01C48922
:1019C000BC9700018305D8A4E8EF0CF0EAEF0CF017
:1019D00003EF0DF0EEEF0CF0EEEF0CF03F01CCA9B1
:1019E000F4EF0CF0F6EF0CF0EEEF0CF03901A19BE8
:1019F000918B03EF0DF003EF0DF03901919B3F0147
:101A0000BC8703EF0DF01200000120EE03F08351BC
:101A1000D9268451DA22DF50856F8551010D60008F
:101A20000FF2D9FF600013F2DAFF6F0078FF86F043
:101A30006F0074FF87F0F3508625D96EF45087212C
:101A4000DA6EDF50886F20EE03F08351D92684517F
:101A5000DA22DF2A88512DEF0DF012001F0E00014F
:101A6000836F000E846F000E856F010E866FA0ECF1
:101A70000DF0140E3A01D26FBC0E3F011B6F280E01
:101A80001C6F000E1D6F880E1E6F200E206F000E43
:101A9000216FC30E1F6F3901A19D918D818DA19F73
:101AA000918F818FA19B918B818B1200000120EE81
:101AB00002F06C51D9266D51DA22DF506F6F6F51F1
:101AC000010D6000B3F1D9FF6000B7F1DAFF6F00DC
:101AD00078FF70F06F0074FF71F0F3507025D96ECD
:101AE000F4507121DA6E6000BBF1DFFF20EE02F0EE
:101AF0006C51D9266D51DA22DF2A1200BEEC0DF0AE
:101B00002EEC0EF03901C091000ED3EC0CF0E00E7B
:101B10003F01BC13C00EBA17C3693A015169000EE8
:101B2000586F000EBE6F000E576F56693901908FC7
:101B3000D89F0300020ED3EC0CF015EC0EF012004F
:101B400060000FF2D9FF600013F2DAFF600017F2B5
:101B5000DEFF60001BF2DDFF000120EE02F083518A
:101B6000D9268451DA22000EDF6E20EE03F0835175
:101B7000D9268451DA22000EDF6E12003F01D29F77
:101B8000D29D000E3901906F000E916F000E926F82
:101B9000000E936F000E946F000E956F000E966FFF
:101BA000000E976F000E986F000E996F000E9A6FDF
:021BB000120021
:101BB4003F01BA8D3901A19B919BFF0E3F011B6F21
:101BC400FF0E1C6FFF0E1D6F1F0E00016C6F000EC9
:101BD4006D6F0A0E6E6F56EC0DF03F01BC71BA9D2D
:101BE4003901D8991100000E3901F36F010EF16F1C
:101BF400020EF26F3901550EEF6FAA0EEF6FEF81EF
:101C04003F01D28BD28FD28D12003901C09FC0996F
:101C1400C091C195C197C19BC391C399C69BC691FD
:101C2400C693C791120007EC0EF0DFEC0BF022EC28
:101C34000EF02EEC0DF004EC0BF0F5EC0DF01200B0
:101C4400000E3F019B6F020E9D6F030E9A6F3901C8
:101C5400889DA89D988D12003901C069C169C26927
:101C6400C369C469C569C669C76912003901D991D4
:101C7400D993D995D997060EDF6F12003F01BA8D1B
:101C8400FF0011003F01BA8DFF001100000E3A0160
:101C9400576F11003901A497D89911003901A29105
:051CA4001100FFFF0428
:107DE80000008040C020A060E0109050D030B070FB
:107DF800F0088848C828A868E8189858D838B87883
:107E0800F8048444C424A464E4149454D434B474A6
:107E1800F40C8C4CCC2CAC6CEC1C9C5CDC3CBC7C22
:107E2800FC028242C222A262E2129252D232B272A0
:107E3800F20A8A4ACA2AAA6AEA1A9A5ADA3ABA7A22
:107E4800FA068646C626A666E6169656D636B67646
:107E5800F60E8E4ECE2EAE6EEE1E9E5EDE3EBE7EC2
:107E6800FE018141C121A161E1119151D131B1716D
:107E7800F1098949C929A969E9199959D939B979F2
:107E8800F9058545C525A565E5159555D535B57516
:107E9800F50D8D4DCD2DAD6DED1D9D5DDD3DBD7D92
:107EA800FD038343C323A363E3139353D333B37310
:107EB800F30B8B4BCB2BAB6BEB1B9B5BDB3BBB7B92
:107EC800FB078747C727A767E7179757D737B777B6
:107ED800F70F8F4FCF2FAF6FEF1F9F5FDF3FBF7F32
:107EE800FF0001010201020203010202030203036F
:107EF800040102020302030304020303040304044B
:107F08000501020203020303040203030403040439
:107F1800050203030403040405030404050405051A
:107F28000601020203020303040203030403040418
:107F380005020303040304040503040405040505FA
:107F480006020303040304040503040405040505E9
:107F580006030404050405050604050506050606CA
:107F680007010202030203030402030304030404D7
:107F780005020303040304040503040405040505BA
:107F880006020303040304040503040405040505A9
:107F9800060304040504050506040505060506068A
:107FA8000702030304030404050304040504050588
:107FB800060304040504050506040505060506066A
:107FC8000703040405040505060405050605060659
:107FD800070405050605060607050606070607073A
:107FE80008ED48D5D978B9BDE8FDF9FC3D155DB572
:087FF800B43E3D3B372F1F0092
:020000040020DA
:10000000FF0FFF0FFF0FFF0FFF0FFF0FFF0FFF0F80
:020000040030CA
:0A000000ECDD2AF79FFFFFDFFFFF92
:00000001FF
