:020000040000FA
:0400000057EF00F0C6
:100008001F072107210721072107210721072307A8
:1000180021072107210721072107EC064503D803FB
:100028002707210721072107210721072107210782
:100038002107210721072107210721072107210778
:1000480021072107210725072B0021072107210761
:100058002107210721072107210721072107210758
:100068002107210721072107210721072107210748
:10007800210721072B002107210721072B002B002F
:100088002B002B002B002B002B002B002F06210709
:1000980021072107210721072B002B002B002B000C
:1000A80021072107FF0098EF0CF0000E3A01586F66
:1000B800BE9FC00E3F01BA17E00EBC1300F0000E41
:1000C80000017D6F050E7D656CEF00F06EEF00F0AE
:1000D80072EF00F0A2EF00F0A2EF00F03F0E3F0138
:1000E800BA13C3693A01516900017D51010DF90E36
:1000F800F324F66E7F0EF420F76E0800F5503F01EA
:10010800BA1700F000F000F000F000017D51010D79
:10011800180EF324D96E000EF420DA6E3F01CB518D
:10012800FF0ADF6E00017D2B050E7D659EEF00F056
:10013800A0EF00F072EF00F0A2EF00F03F0E3F01D9
:10014800BA13000E3A01516F000E3F01C36F000E43
:1001580000017D6F050E7D65B4EF00F0B6EF00F08D
:10016800BAEF00F019EF01F019EF01F07D51010D20
:10017800180EF324D96E000EF420DA6EDF507B6F70
:10018800000E7A6FDDEF00F07BA1CDEF00F0CFEF2E
:1001980000F0D7EF00F07D51080DF3507A25ADEC53
:1001A80009F0D7EF00F00001D8907B337A2BDDEF10
:1001B80000F07B51D8A4E3EF00F0E5EF00F0C8EFC2
:1001C80000F0E7EF00F07D2B050E7D65EEEF00F007
:1001D800F0EF00F0BAEF00F019EF01F019EF01F0BD
:1001E800000E7D6F050E7D65FCEF00F0FEEF00F060
:1001F80002EF01F019EF01F019EF01F07D51010D47
:10020800180EF324D96E000EF420DA6E000EDF6E9D
:100218007D2B050E7D6513EF01F015EF01F002EF60
:1002280001F019EF01F019EF01F03F0E3F01BA1389
:10023800000E00017E6F020E7E6525EF01F027EFAC
:1002480001F02BEF01F02BEF02F02BEF02F07E51C3
:10025800050D020EF326000EF422010EF324D96ECA
:10026800000EF420DA6EDE28D8B43DEF01F03FEF3F
:1002780001F021EF02F07E51050D020EF326000E6B
:10028800F422010EF324D96E000EF420DA6EDF504A
:10029800756F070E75177E51050D020EF326000EB9
:1002A800F422010EF324D96E000EF420DA6EDF502A
:1002B800766FD8907633D8907633D8907631776F3A
:1002C800786B180E7725D96E000E7821DA6EDF501C
:1002D800796F752B72EF01F0D8907933752F70EF25
:1002E80001F0000179A17BEF01F07DEF01F0C1EF92
:1002F80001F07E51050D010EF324D96E000EF42095
:10030800DA6E140EDE18D8A48CEF01F08EEF01F02F
:10031800B4EF01F07E51050D010EF326000EF42214
:10032800010EF324D96E000EF420DA6EDF50D8A443
:10033800A0EF01F0A2EF01F021EF02F07E51050DD0
:10034800010EF326000EF422010EF324D96E000EDE
:10035800F420DA6E010EDF6E21EF02F021EF02F0D9
:100368007E51050D010EF324D96E000EF420DA6ECD
:10037800DF2A21EF02F021EF02F07E51050D010E78
:10038800F324D96E000EF420DA6EDF50D8A4CFEF34
:1003980001F0D1EF01F0E4EF01F07E51050D010EFF
:1003A800F326000EF422010EF324D96E000EF42079
:1003B800DA6E000EDF6E7E51BFEC08F021EF02F01E
:1003C80000017E51050D010EF324D96E000EF420B4
:1003D800DA6E140EDE18D8A4F4EF01F0F6EF01F08F
:1003E80010EF02F07E51050D010EF324D96E000EB8
:1003F800F420DA6E0A0EDF6E7E51050D010EF3262B
:10040800000EF422010EF324D96E000EF420DA6EE9
:10041800000EDF6E21EF02F07E51050D010EF32470
:10042800D96E000EF420DA6EDF0621EF02F021EF1C
:1004380002F021EF02F021EF02F000017E2B020E04
:100448007E6529EF02F02BEF02F02BEF01F0600040
:1004580018F17EF0000E7C6F7AEF02F07E51050DE8
:10046800010EF326000EF422010EF324D96E000EBD
:10047800F420DA6EDF50D8B444EF02F046EF02F011
:100488006AEF02F0030E7C614CEF02F04EEF02F0CF
:100498006AEF02F07E51050D020EF326000EF422DB
:1004A800010EF324D96E000EF420DA6E7C51010D92
:1004B800960EF324E16E000EF420E26E6F007FFFCB
:1004C800E7FF7C2B6AEF02F06AEF02F07E51050D20
:1004D800040EF326000EF422010EF324D96E000E4A
:1004E800F420DA6EDF507E6F7AEF02F07E29D8A40E
:1004F80080EF02F082EF02F032EF02F06000F0F1DC
:100508009BF0020E7C658BEF02F08DEF02F091EF0D
:1005180002F0A6EF02F0A6EF02F07C51010D960E54
:10052800F324D96E000EF420DA6E000EDF6E7C2BF9
:10053800020E7C65A2EF02F0A4EF02F091EF02F048
:10054800A6EF02F012002CEC0EF036EC0EF013ECD5
:100558000EF0AFEF02F0000E0201326F030E000141
:10056800BD65B9EF02F0BBEF02F0D8EF02F0105012
:10057800D8B4C1EF02F0C3EF02F0CBEF02F0000EE7
:10058800D1EC0CF03901D88F0300DDEF02F07CECE0
:100598000DF0000E00019A6F000EBD6F3901A88D95
:1005A800DDEF02F0DDEF02F03901D88F0300DDEF57
:1005B80002F000019B51D8B4E4EF02F0E6EF02F03C
:1005C80038EF04F0000EBD6F010ED1EC0CF038EFDF
:1005D80004F038EF04F01F0E0001836F000E846FE3
:1005E80002EC0DF00201356F080E3561FEEF02F0E6
:1005F80000EF03F041EF03F000019A51D8B407EF80
:1006080003F009EF03F038EF04F09AA10EEF03F0BE
:1006180010EF03F01FEF03F0D8909A310201286F12
:10062800296B9D0E2825D96E000E2921DA6E3551C9
:10063800DF1231EF03F00001D8909A310201286FE0
:10064800296B9D0E2825D96E000E2921DA6E3539C1
:10065800E842F80BDF6E31EF03F0140E00019A61E7
:1006680038EF03F03AEF03F038EF04F09A2B38EF45
:1006780004F038EF04F038EF04F0090E02013519E0
:10068800D8A449EF03F04BEF03F075EF03F0000E29
:10069800336F050E336553EF03F055EF03F059EF51
:1006A80003F06EEF03F06EEF03F03351010D9D0E72
:1006B800F324D96E000EF420DA6EFF0EDF6E332BB2
:1006C800050E33656AEF03F06CEF03F059EF03F0A2
:1006D8006EEF03F0000E00019D6F010E9A6F38EF68
:1006E80004F00A0E02013519D8A47DEF03F07FEF5C
:1006F80003F02DEF04F000019AA185EF03F087EFD6
:1007080003F028EF04F0D8909A310201286F296B82
:100718009D0E2825D96E000E2921DA6EDF502A6F2A
:10072800D8902A33D8902A33D8902A312C6F9E0E2D
:100738000001836F000E846F600068F228F20201E6
:10074800D890283328050001856F9D0E97EC0BF093
:1007580002012D6F0001D8909A310201286F296B90
:100768009D0E2825D96E000E2921DA6EDF502A6FDA
:10077800D8902A33D8902A33D8902A339E0E000175
:10078800836F000E846F600068F22BF20201D8902C
:100798002B332B050001856F9D5197EC0BF002015F
:1007A8002A19D8A4DAEF03F0DCEF03F028EF04F0FD
:1007B80009EF04F009EF04F0010E326F000E00019A
:1007C8009C6F28EF04F000019E39E8461F0B070BC9
:1007D8000201286F296B100E2825D96E000E2921D9
:1007E800DA6E600078F22AF2070E2A17060E2B6FCF
:1007F800D8902A372B2FFCEF03F02A5100019F11C4
:10080800DF6E28EF04F028EF04F000019D5102018B
:10081800286F296B2951000AD8B415EF04F028EF86
:1008280004F02851030AD8B4E0EF03F0040AD8B45E
:10083800E7EF03F028EF04F028EF04F028EF04F0C6
:1008480028EF04F028EF04F0000E00019A6F38EF4B
:1008580004F0000E00019A6F38EF04F038EF04F04E
:1008680038EF04F038EF04F021502218D8A43FEFF5
:1008780004F041EF04F0EFEF02F043EF04F002015F
:100888003251D8B44AEF04F04CEF04F0A9EF04F069
:10089800000E326F00019B51D8A455EF04F057EFBA
:1008A80004F05FEF04F0040EBD615DEF04F05FEF4C
:1008B80004F0A9EF04F03901989D000E0201346F8D
:1008C800030E34656AEF04F06CEF04F070EF04F087
:1008D8008CEF04F08CEF04F03451010D960EF324E4
:1008E800D96E000EF420DA6E3451010D2E0EF32469
:1008F800E16E020EF420E26E6F007FFFE7FF342BFB
:10090800030E34658AEF04F08CEF04F070EF04F006
:100918003901988D2E0E00018C6F020E8D6F6000CC
:100928006CF28EF0050EC7EC04F000019B51D8A4C0
:10093800A0EF04F0A2EF04F0A9EF04F0BD2BA9EF9B
:1009480004F0A9EF04F0A9EF04F0200E00019C6563
:10095800B0EF04F0B2EF04F0AFEF02F09B51D8A46F
:10096800B8EF04F0BAEF04F0AFEF02F0000E9C6F9E
:10097800BD2BAFEF02F0AFEF02F0AFEF02F0AFEF39
:1009880002F057EF00F00201246F3901919B919D0D
:10099800919F000E0201266F000E256F265109E176
:1009A800FA0E255DD8A0DBEF04F0DDEF04F0E1EFEF
:1009B80004F0F2EF04F0F2EF04F000F00201254B2E
:1009C800262B265109E1FA0E255DD8A0EEEF04F09A
:1009D800F0EF04F0E1EF04F0F2EF04F0600090F8BB
:1009E8008FF0070E00018F178F51030D390EF32476
:1009F8000201006F000EF420016F000E276F9EEFBA
:100A080005F02751020DD890F336F436000EF32482
:100A1800D96E020EF420DA6E6F0078FF8FF06F0047
:100A280074FF90F02751010DF35000018C25D96E09
:100A3800F4508D21DA6EDF50916FD8909133D890B1
:100A48009133D89091339151030D8F51F3269051E2
:100A5800F422050EF326000EF422020127510001AC
:100A6800926F936BD89092379337D8909237933789
:100A7800020E9227000E9323000E9225D96E020EC5
:100A88009321DA6E6F00CFFFDEFF6F00D3FFDDFF2B
:100A98000201275100018F6F906BD8908F379037E4
:100AA800D8908F379037020E8F27000E9023000EB4
:100AB8008F25D96E020E9021DA6E6F0078FF91F0C3
:100AC8006F0074FF92F002012751010DF3500001ED
:100AD8008C25D96EF4508D21DA6EDF50936F070E96
:100AE80093179351030D9151F3269251F422050E59
:100AF800F326000EF422020127510001946F956B32
:100B0800D89094379537D89094379537040E942712
:100B1800000E9523000E9425D96E020E9521DA6EEB
:100B28006F00CFFFDEFF6F00D3FFDDFF0201272B31
:100B38009EEF05F000018E510201275DD8A0A7EFB6
:100B480005F0A9EF05F005EF05F0ABEF05F00001A2
:100B58008E51020DD890F336F436000EF324D96E78
:100B6800020EF420DA6E6F0078FF8FF06F0074FFCA
:100B780090F0600030F283F0600034F284F060009E
:100B880038F285F00201245197EC0BF00001916FC7
:100B98009151030D8F51F3269051F422050EF3263F
:100BA800000EF4228E51926F936BD8909237933740
:100BB800D89092379337020E9227000E9323000E97
:100BC8009225D96E020E9321DA6E6F00CFFFDEFFF9
:100BD8006F00D3FFDDFF8E518F6F906BD8908F37EA
:100BE8009037D8908F379037020E8F27000E9023BA
:100BF800000E8F25D96E020E9021DA6E6F0078FFF5
:100C080091F06F0074FF92F0230E9127000E92234B
:100C18008E51936F946BD89093379437D8909337BD
:100C28009437040E9327000E9423000E9325D96E53
:100C3800020E9421DA6E600047F2DEFF60004BF28C
:100C4800DDFF000E3B01FC6F000EF96F020EFA6F1C
:100C5800000EFB6F3F0EF16F7C0EF06F430EFD6FC1
:100C680000018E51040D060EF3243B01F76F000EB0
:100C7800F420F86F000EEF6F020EEE6F230EFF6F79
:100C8800000E3F017D6F340E7C6FA569A469AA69C7
:100C98003C0175857595FA8F3F017E8FA6813B01D2
:100CA800FC8FFC8D3F017E51F00B09097E6FAC8FE4
:100CB8007E51F00B02097E6FBA8D3901A291D8815D
:100CC800D883D885D88BD889D88D6BEF06F0A2A1A8
:100CD80070EF06F072EF06F06BEF06F03C01FA9F3A
:100CE8003901A497D89D79EF06F0A4A77EEF06F006
:100CF80080EF06F079EF06F0D89D3F017E9FA69120
:100D0800AC9FBA9D3901A19F918F12003F01BA8D06
:100D1800000E416E000E426E000E436E000E446ED1
:100D280040683901A19D3F011551416E1651426E2F
:100D38001751436E446A600004F134F0600008F112
:100D480035F060000CF136F0600010F137F0380E25
:100D5800386E000E396E000E3A6E000E3B6E20ECB7
:100D68000CF06000D0F041F06000D4F042F0600078
:100D7800D8F043F06000DCF044F04450431009E13F
:100D8800C00E415CDA0E4258D8B0CDEF06F0CFEF76
:100D980006F0D2EF06F0406892EF07F044500BE1FE
:100DA800400E415C960E4258010E4358D8B0DFEF12
:100DB80006F0E1EF06F0E5EF06F0000E406E92EF68
:100DC80007F044500BE1C00E415C510E4258020E30
:100DD8004358D8B0F2EF06F0F4EF06F0F8EF06F05B
:100DE800010E406E92EF07F044500BE1400E415C5B
:100DF8000D0E4258030E4358D8B005EF07F007EF21
:100E080007F00BEF07F0020E406E92EF07F0445028
:100E18000BE1C00E415CC80E4258030E4358D8B0CF
:100E280018EF07F01AEF07F01EEF07F0030E406EF9
:100E380092EF07F044500BE1400E415C840E42589B
:100E4800040E4358D8B02BEF07F02DEF07F031EF21
:100E580007F0040E406E92EF07F044500BE1C00E0D
:100E6800415C3F0E4258050E4358D8B03EEF07F09C
:100E780040EF07F044EF07F0050E406E92EF07F0E1
:100E880044500BE1400E415CFB0E4258050E43589E
:100E9800D8B051EF07F053EF07F057EF07F0060E01
:100EA800406E92EF07F044500BE1C00E415CB60E65
:100EB8004258060E4358D8B064EF07F066EF07F0C3
:100EC8006AEF07F0070E406E92EF07F044500BE10F
:100ED800C00E415C2D0E4258080E4358D8B077EF2B
:100EE80007F079EF07F07CEF07F0406892EF07F022
:100EF8000A0E406E92EF07F092EF07F092EF07F0BC
:100F080092EF07F092EF07F092EF07F092EF07F0F9
:100F180092EF07F092EF07F092EF07F01F0E000133
:100F28006C6F000E6D6F600000F16EF054EC0DF008
:100F38009EEF07F03901919BFF0E3F011B6FFF0EDB
:100F48001C6FFF0E1D6F3901A19F918F3F01BA9D44
:060F58003901D8991100D7
:100F60003F01BA8D000E306E000E316E000E326EF3
:100F7000000E336E2F683901A19F3F011851306E6A
:100F80001951316E1A51326E336A6000C0F034F07C
:100F90006000C4F035F06000C8F036F06000CCF0BE
:100FA00037F0380E386E000E396E000E3A6E000EB5
:100FB0003B6E20EC0CF06000D0F030F06000D4F01C
:100FC00031F06000D8F032F06000DCF033F03350E4
:100FD000321009E1C00E305CDA0E3158D8B0F3EFB0
:100FE00007F0F5EF07F0F8EF07F02F68A4EF08F02F
:100FF00033500BE1400E305C960E3158010E3258E2
:10100000D8B005EF08F007EF08F00BEF08F0000E7E
:101010002F6EA4EF08F033500BE1C00E305C510E80
:101020003158020E3258D8B018EF08F01AEF08F015
:101030001EEF08F0010E2F6EA4EF08F033500BE105
:10104000400E305C0D0E3158030E3258D8B02BEFE5
:1010500008F02DEF08F031EF08F0020E2F6EA4EF2C
:1010600008F033500BE1C00E305CC80E3158030E4F
:101070003258D8B03EEF08F040EF08F044EF08F0E7
:10108000030E2F6EA4EF08F033500BE1400E305CDE
:10109000840E3158040E3258D8B051EF08F053EF97
:1010A00008F057EF08F0040E2F6EA4EF08F033504D
:1010B0000BE1C00E305C3F0E3158050E3258D8B0EF
:1010C00064EF08F066EF08F06AEF08F0050E2F6E87
:1010D000A4EF08F033500BE1400E305CFB0E3158AA
:1010E000050E3258D8B077EF08F079EF08F07DEFB1
:1010F00008F0060E2F6EA4EF08F033500BE1C00E7F
:10110000305CB60E3158060E3258D8B08AEF08F06F
:101110008CEF08F090EF08F0070E2F6EA4EF08F0A8
:10112000090E2F6EA4EF08F0A4EF08F0A4EF08F06A
:10113000A4EF08F0A4EF08F0A4EF08F0A4EF08F083
:10114000A4EF08F0A4EF08F01F0E00016C6F000E72
:101150006D6F6000BCF06EF054EC0DF0BC0E3F0102
:101160001B6F280E1C6F000E1D6F3901A19B918B08
:10117000A19D918D3F01BA9D3901D89911000001BF
:10118000736F00017351050D010EF326000EF4225A
:10119000010EF324D96E000EF420DA6E000EDF6E1D
:1011A0007351050D020EF326000EF422010EF324F6
:1011B000D96E000EF420DA6EFF0EDF6E7351050D4E
:1011C000040EF326000EF422010EF324D96E000E55
:1011D000F420DA6EDE28D8A4F0EF08F0F2EF08F081
:1011E0001AEF09F07351050D030EF326000EF422D9
:1011F000010EF324D96E000EF420DA6EDF50456E36
:101200004528D8B406EF09F008EF09F045EF09F0DA
:101210004550050D040EF326000EF422010EF324B2
:10122000D96E000EF420DA6EFF0EDF6E45EF09F086
:1012300045EF09F07351050D030EF326000EF4225D
:10124000010EF324D96E000EF420DA6E7351050DF1
:10125000040EF326000EF422010EF324E16E000EBC
:10126000F420E26EE750726F7251050D030EF32603
:10127000000EF422010EF324E16E000EF420E26E63
:101280006F007FFFE7FF45EF09F07351050D030E77
:10129000F326000EF422010EF324D96E000EF42082
:1012A000DA6EDE28D8A457EF09F059EF09F081EF84
:1012B00009F07351050D040EF326000EF422010E01
:1012C000F324D96E000EF420DA6EDF50466E462805
:1012D000D8B46DEF09F06FEF09F0ACEF09F04650AC
:1012E000050D030EF326000EF422010EF324D96E31
:1012F000000EF420DA6EFF0EDF6EACEF09F0ACEFFB
:1013000009F07351050D040EF326000EF422010EB0
:10131000F324D96E000EF420DA6E7351050D030E1E
:10132000F326000EF422010EF324E16E000EF420E9
:10133000E26EE750726F7251050D040EF326000E37
:10134000F422010EF324E16E000EF420E26E6F0031
:101350007FFFE7FFACEF09F012000001736F000E92
:101360000001746F020E7465B8EF09F0BAEF09F06E
:10137000BEEF09F0E2EF09F0E2EF09F07451050D5C
:10138000020EF326000EF422010EF324D96E000E95
:10139000F420DA6E7351DE18D8A4D1EF09F0D3EF40
:1013A00009F0D7EF09F086EF0AF086EF0AF0742B08
:1013B000020E7465DEEF09F0E0EF09F0BEEF09F010
:1013C000E2EF09F0000E746F020E7465EAEF09F0A7
:1013D000ECEF09F0F0EF09F086EF0AF086EF0AF083
:1013E0007451050D020EF326000EF422010EF324B3
:1013F000D96E000EF420DA6EDE28D8A402EF0AF0CF
:1014000004EF0AF07BEF0AF07451050D020EF3268B
:10141000000EF422010EF324D96E000EF420DA6ED1
:101420006000CFF1DFFF7451050D010EF324D96E7A
:10143000000EF420DA6E0A0EDF6E7451050D010EF7
:10144000F326000EF422010EF324D96E000EF420D0
:10145000DA6E010EDF6E7451050D040EF326000ED8
:10146000F422010EF324D96E000EF420DA6EFF0E82
:10147000DF6E4628D8A43FEF0AF041EF0AF054EFA0
:101480000AF06000D0F146F07451050D030EF3260A
:10149000000EF422010EF324D96E000EF420DA6E51
:1014A000FF0EDF6E74EF0AF04550050D040EF326B3
:1014B000000EF422010EF324D96E000EF420DA6E31
:1014C0006000D3F1DFFF7451050D030EF326000E0B
:1014D000F422010EF324D96E000EF420DA6E6000BF
:1014E00017F1DFFF74EF0AF06000D0F145F086EFEE
:1014F0000AF086EF0AF0742B020E746582EF0AF090
:1015000084EF0AF0F0EF09F086EF0AF01200000E07
:101510000001886F86BF91EF0AF08FEF0AF099EF14
:101520000AF0856D861FD8B0862B010E886F99EF63
:101530000AF084BFA0EF0AF09EEF0AF0A8EF0AF0CD
:10154000836D841FD8B0842B010E881BA8EF0AF08E
:10155000000E8A6F000E896F85518611D8B4B3EFE3
:101560000AF0B5EF0AF0E9EF0AF0010E876FBFEF5E
:101570000AF0D89085378637872BBFEF0AF086AF01
:10158000C4EF0AF0C6EF0AF0B9EF0AF0CAEF0AF0AA
:10159000CAEF0AF0D89089378A378551835D865122
:1015A0008459D8A0D6EF0AF0D8EF0AF0DFEF0AF09E
:1015B0008551835F8651845B8981DFEF0AF0D89083
:1015C00086338533872FCAEF0AF0E9EF0AF0E9EF97
:1015D0000AF08851D8B4EFEF0AF0F1EF0AF0F7EF14
:1015E0000AF0896D8A1FD8B08A2BF7EF0AF06000E5
:1015F00024F283F0600028F284F0FFEF0AF012007A
:10160000010E3F01AE6F040EAF6F8E0EAB6F800EFA
:10161000AC6F5F51FC0B01095F6F800E6E6F6F0046
:10162000ACFE83F00001846B000E866F020E856FA6
:1016300087EC0AF0000183513F016D6F000E3C0101
:10164000756F180E766F240E776F020E7A6F040E88
:101650007B6F000E7C6F000E7D6F840E746F000E2A
:101660003F01A56F000EA46F0D0EA96F060EA66FA9
:101670005E51FC0B02095E6F000E3C01FA6F000E1A
:10168000FB6F1F0EFD6F080EFE6F020EFC6F000E4B
:101690003A01D76F280E126F12000001766F000E0C
:1016A0003A01586F00017251D8A459EF0BF05DEF69
:1016B0000BF0736B732B5FEF0BF00001736B7333E5
:1016C00073333A01BE51000173197F0B73193A014C
:1016D000BE6F6000CBF158FAE00E3F01BC13600012
:1016E000CBF1BBFF000EC36F020E000176657BEFEE
:1016F0000BF07DEF0BF081EF0BF0020E766F81EFB8
:101700000BF06000D8F173F0800E746F000E756FEF
:10171000732B8EEF0BF0753575337433732F8BEF9E
:101720000BF000017451FF0A3F01BC1712000001C9
:10173000896F600024F28BF0000E00018A6FAEEF1B
:101740000BF08A51010DF3508325D96EF45084219A
:10175000DA6EDF508B1B8A2BAEEF0BF085518A5D62
:10176000D8A0B5EF0BF0B7EF0BF0A1EF0BF0B9EF8E
:101770000BF08B39E8461F0B0008070F8B19070B7E
:101780008B6F60002CF286F0D8908633D890863329
:10179000010E861760002CF287F0020E871760009A
:1017A0002CF288F0010E8817D8908837D8908835A9
:1017B00087118611DCEF0BF01200000E3A01406F2A
:1017C0003F0E3F01BA6F000EC26F000E3A01416F2B
:1017D000000E426F000E436F4469000E486F000E0A
:1017E000496F000E506F000E3F01BB6F000EC36FBC
:1017F000000E3A01516F000E526F000E536F546984
:10180000000E586F000E596F000E606F0E0E3F01F4
:10181000BC6F100EC46F000E3A01616F000E626F54
:10182000000E636F6469000E686F000E696F080E2A
:10183000816F080E846F030EBE6F280E076F1200B3
:10184000000E3C6E000E3D6E000E3E6E000E3F6EB2
:101850002AEF0CF034A02FEF0CF031EF0CF03BEF3F
:101860000CF038503C2639503D223A503E223B5035
:101870003F223BEF0CF0D890383639363A363B36BB
:10188000D890373236323532343234503510361043
:101890003710D8A44EEF0CF050EF0CF02AEF0CF0FC
:1018A0006000F0F034F06000F4F035F06000F8F023
:0A18B00036F06000FCF037F0120083
:1018BC006F00D8FF7FF06F00DCFF80F06F00E0FF5F
:1018CC0081F06F00D4FF82F03901A89D59EC00F033
:1018DC001E50010D100EF324D96E000EF420DA6E9A
:1018EC00DF500001726F1E504DEC0BF01E2A020EE1
:1018FC001E6483EF0CF085EF0CF089EF0CF0000EFA
:10190C001E6E89EF0CF000019C2B60000BF2F5FFB2
:10191C00600007F2F8FF600003F2F7FF6000FFF1D0
:10192C00F6FF1100A40EF66E1C0EF76E000EF86E8C
:10193C0009006F00D4FFBDF0A20EF66E1C0EF76E00
:10194C00000EF86E09006F00D4FF45F009006F001F
:10195C00D4FF46F000EE00F110EE00F1EE6AE55017
:10196C00E150FCE1E250FAE100EE96F0270EEE6A4F
:10197C00E806FDE100EE01F0220EEE6AE806FDE15C
:10198C00080ED56E000ED66E000ED76E000EF86ED9
:10199C000001A7EF02F00001836F00018351D8B45E
:1019AC00DAEF0CF0DCEF0CF0FBEF0CF03F01C4892C
:1019BC00BC9700018305D8A4E6EF0CF0E8EF0CF01F
:1019CC0001EF0DF0ECEF0CF0ECEF0CF03F01CCA9BB
:1019DC00F2EF0CF0F4EF0CF0ECEF0CF03901A19BF2
:1019EC00918B01EF0DF001EF0DF03901919B3F014F
:1019FC00BC8701EF0DF01200000120EE03F08351C3
:101A0C00D9268451DA22DF50856F8551010D600093
:101A1C000FF2D9FF600013F2DAFF6F0078FF86F047
:101A2C006F0074FF87F0F3508625D96EF450872130
:101A3C00DA6EDF50886F20EE03F08351D926845183
:101A4C00DA22DF2A88512BEF0DF012001F0E000155
:101A5C00836F000E846F000E856F010E866F9EECF7
:101A6C000DF0140E3A01D26FBC0E3F011B6F280E05
:101A7C001C6F000E1D6F880E1E6F200E206F000E47
:101A8C00216FC30E1F6F3901A19D918D818DA19F77
:101A9C00918F818FA19B918B818B1200000120EE85
:101AAC0002F06C51D9266D51DA22DF506F6F6F51F5
:101ABC00010D6000B3F1D9FF6000B7F1DAFF6F00E0
:101ACC0078FF70F06F0074FF71F0F3507025D96ED1
:101ADC00F4507121DA6E6000BBF1DFFF20EE02F0F2
:101AEC006C51D9266D51DA22DF2A1200BCEC0DF0B4
:101AFC002CEC0EF03901C091000ED1EC0CF0E00E84
:101B0C003F01BC13C00EBA17C3693A015169000EEC
:101B1C00586F000EBE6F000E576F56693901908FCB
:101B2C00D89F0300020ED1EC0CF013EC0EF0120057
:101B3C0060000FF2D9FF600013F2DAFF600017F2B9
:101B4C00DEFF60001BF2DDFF000120EE02F083518E
:101B5C00D9268451DA22000EDF6E20EE03F0835179
:101B6C00D9268451DA22000EDF6E12003F01D29F7B
:101B7C00D29D000E3901906F000E916F000E926F86
:101B8C00000E936F000E946F000E956F000E966F03
:101B9C00000E976F000E986F000E996F000E9A6FE3
:021BAC00120025
:101BB0003F01BA8D3901A19B919BFF0E3F011B6F25
:101BC000FF0E1C6FFF0E1D6F1F0E00016C6F000ECD
:101BD0006D6F0A0E6E6F54EC0DF03F01BC71BA9D33
:101BE0003901D8991100000E3901F36F010EF16F20
:101BF000020EF26F3901550EEF6FAA0EEF6FEF81F3
:101C00003F01D28BD28FD28D12003901C09FC09973
:101C1000C091C195C197C19BC391C399C69BC69101
:101C2000C693C791120005EC0EF0DDEC0BF020EC32
:101C30000EF02CEC0DF000EC0BF0F3EC0DF01200BC
:101C4000000E3F019B6F020E9D6F030E9A6F3901CC
:101C5000889DA89D988D12003901C069C169C2692B
:101C6000C369C469C569C669C76912003901D991D8
:101C7000D993D995D997060EDF6F12003F01BA8D1F
:101C8000FF0011003F01BA8DFF001100000E3A0164
:101C9000576F11003901A497D89911003901A29109
:051CA0001100FFFF042C
:107DE80000008040C020A060E0109050D030B070FB
:107DF800F0088848C828A868E8189858D838B87883
:107E0800F8048444C424A464E4149454D434B474A6
:107E1800F40C8C4CCC2CAC6CEC1C9C5CDC3CBC7C22
:107E2800FC028242C222A262E2129252D232B272A0
:107E3800F20A8A4ACA2AAA6AEA1A9A5ADA3ABA7A22
:107E4800FA068646C626A666E6169656D636B67646
:107E5800F60E8E4ECE2EAE6EEE1E9E5EDE3EBE7EC2
:107E6800FE018141C121A161E1119151D131B1716D
:107E7800F1098949C929A969E9199959D939B979F2
:107E8800F9058545C525A565E5159555D535B57516
:107E9800F50D8D4DCD2DAD6DED1D9D5DDD3DBD7D92
:107EA800FD038343C323A363E3139353D333B37310
:107EB800F30B8B4BCB2BAB6BEB1B9B5BDB3BBB7B92
:107EC800FB078747C727A767E7179757D737B777B6
:107ED800F70F8F4FCF2FAF6FEF1F9F5FDF3FBF7F32
:107EE800FF0001010201020203010202030203036F
:107EF800040102020302030304020303040304044B
:107F08000501020203020303040203030403040439
:107F1800050203030403040405030404050405051A
:107F28000601020203020303040203030403040418
:107F380005020303040304040503040405040505FA
:107F480006020303040304040503040405040505E9
:107F580006030404050405050604050506050606CA
:107F680007010202030203030402030304030404D7
:107F780005020303040304040503040405040505BA
:107F880006020303040304040503040405040505A9
:107F9800060304040504050506040505060506068A
:107FA8000702030304030404050304040504050588
:107FB800060304040504050506040505060506066A
:107FC8000703040405040505060405050605060659
:107FD800070405050605060607050606070607073A
:107FE80008ED48D5D978B9BDE8FDF9FC3D155DB572
:087FF800B43E3D3B372F1F0092
:020000040020DA
:10000000FF0FFF0FFF0FFF0FFF0FFF0FFF0FFF0F80
:020000040030CA
:0A000000ECDD2AF79FFFFFDFFFFF92
:00000001FF
