:020000040000fa
:080000000002040000000000f2
:020000040000fa
:040008008004000070
:020000040000fa
:04000c00800400006c
:020000040000fa
:040010008004000068
:020000040000fa
:040014008004000064
:020000040000fa
:040018008004000060
:020000040000fa
:04001c00800400005c
:020000040000fa
:040020008004000058
:020000040000fa
:040024008004000054
:020000040000fa
:040028008004000050
:020000040000fa
:04002c003403000099
:020000040000fa
:040030008004000048
:020000040000fa
:040034008004000044
:020000040000fa
:040038008004000040
:020000040000fa
:04003c00800400003c
:020000040000fa
:040040008004000038
:020000040000fa
:040044008004000034
:020000040000fa
:040048008004000030
:020000040000fa
:04004c00800400002c
:020000040000fa
:040050008004000028
:020000040000fa
:040054008004000024
:020000040000fa
:040058008004000020
:020000040000fa
:04005c00800400001c
:020000040000fa
:040060008004000018
:020000040000fa
:040064008004000014
:020000040000fa
:040068008004000010
:020000040000fa
:04006c00800400000c
:020000040000fa
:040070008004000008
:020000040000fa
:040074008004000004
:020000040000fa
:040078008004000000
:020000040000fa
:04007c0080040000fc
:020000040000fa
:0400800080040000f8
:020000040000fa
:0400840080040000f4
:020000040000fa
:0400880080040000f0
:020000040000fa
:04008c0080040000ec
:020000040000fa
:0400900080040000e8
:020000040000fa
:0400940080040000e4
:020000040000fa
:0400980080040000e0
:020000040000fa
:04009c0080040000dc
:020000040000fa
:0400a00080040000d8
:020000040000fa
:0400a40080040000d4
:020000040000fa
:0400a80080040000d0
:020000040000fa
:0400ac0080040000cc
:020000040000fa
:0400b00080040000c8
:020000040000fa
:0400b40080040000c4
:020000040000fa
:0400b80080040000c0
:020000040000fa
:0400bc0080040000bc
:020000040000fa
:0400c00080040000b8
:020000040000fa
:0400c40080040000b4
:020000040000fa
:0400c80080040000b0
:020000040000fa
:0400cc0080040000ac
:020000040000fa
:0400d00080040000a8
:020000040000fa
:0400d40080040000a4
:020000040000fa
:0400d80080040000a0
:020000040000fa
:0400dc00800400009c
:020000040000fa
:0400e0008004000098
:020000040000fa
:0400e4008004000094
:020000040000fa
:0400e8008004000090
:020000040000fa
:0400ec00800400008c
:020000040000fa
:0400f0008004000088
:020000040000fa
:0400f4008004000084
:020000040000fa
:0400f8008004000080
:020000040000fa
:0400fc00800400007c
:020000040000fa
:040100008004000077
:020000040000fa
:040104008004000073
:020000040000fa
:04010800800400006f
:020000040000fa
:04010c00800400006b
:020000040000fa
:040110008004000067
:020000040000fa
:040114008004000063
:020000040000fa
:04011800800400005f
:020000040000fa
:04011c00800400005b
:020000040000fa
:040120008004000057
:020000040000fa
:040124008004000053
:020000040000fa
:04012800800400004f
:020000040000fa
:04012c00800400004b
:020000040000fa
:040130008004000047
:020000040000fa
:040134008004000043
:020000040000fa
:04013800800400003f
:020000040000fa
:04013c00800400003b
:020000040000fa
:040140008004000037
:020000040000fa
:040144008004000033
:020000040000fa
:04014800800400002f
:020000040000fa
:04014c00800400002b
:020000040000fa
:040150008004000027
:020000040000fa
:040154008004000023
:020000040000fa
:04015800800400001f
:020000040000fa
:04015c00800400001b
:020000040000fa
:040160008004000017
:020000040000fa
:040164008004000013
:020000040000fa
:04016800800400000f
:020000040000fa
:04016c00800400000b
:020000040000fa
:040170008004000007
:020000040000fa
:040174008004000003
:020000040000fa
:0401780080040000ff
:020000040000fa
:04017c0080040000fb
:020000040000fa
:040180000803000070
:020000040000fa
:0401840080040000f3
:020000040000fa
:0401880080040000ef
:020000040000fa
:04018c0080040000eb
:020000040000fa
:0401900080040000e7
:020000040000fa
:0401940080040000e3
:020000040000fa
:0401980080040000df
:020000040000fa
:04019c0080040000db
:020000040000fa
:0401a00080040000d7
:020000040000fa
:0401a40080040000d3
:020000040000fa
:0401a80080040000cf
:020000040000fa
:0401ac0080040000cb
:020000040000fa
:0401b00080040000c7
:020000040000fa
:0401b40080040000c3
:020000040000fa
:0401b80080040000bf
:020000040000fa
:0401bc0080040000bb
:020000040000fa
:0401c00080040000b7
:020000040000fa
:0401c40080040000b3
:020000040000fa
:0401c80080040000af
:020000040000fa
:0401cc0080040000ab
:020000040000fa
:0401d00080040000a7
:020000040000fa
:0401d40080040000a3
:020000040000fa
:0401d800800400009f
:020000040000fa
:0401dc00800400009b
:020000040000fa
:0401e0008004000097
:020000040000fa
:0401e4008004000093
:020000040000fa
:0401e800800400008f
:020000040000fa
:0401ec00800400008b
:020000040000fa
:0401f0008004000087
:020000040000fa
:0401f4008004000083
:020000040000fa
:0401f800800400007f
:020000040000fa
:0401fc00800400007b
:020000040000fa
:04020800800400006e
:020000040000fa
:04020c00800400006a
:020000040000fa
:040210008004000066
:020000040000fa
:040214008004000062
:020000040000fa
:04021800800400005e
:020000040000fa
:04021c00800400005a
:020000040000fa
:040220008004000056
:020000040000fa
:040224008004000052
:020000040000fa
:04022800800400004e
:020000040000fa
:04022c00800400004a
:020000040000fa
:040230008004000046
:020000040000fa
:040234008004000042
:020000040000fa
:04023800800400003e
:020000040000fa
:04023c00800400003a
:020000040000fa
:040240008004000036
:020000040000fa
:040244008004000032
:020000040000fa
:04024800800400002e
:020000040000fa
:04024c00800400002a
:020000040000fa
:040250008004000026
:020000040000fa
:040254008004000022
:020000040000fa
:04025800800400001e
:020000040000fa
:04025c00800400001a
:020000040000fa
:040260008004000016
:020000040000fa
:040264008004000012
:020000040000fa
:04026800800400000e
:020000040000fa
:04026c00800400000a
:020000040000fa
:040270008004000006
:020000040000fa
:040274008004000002
:020000040000fa
:0402780080040000fe
:020000040000fa
:04027c0080040000fa
:020000040000fa
:0402800080040000f6
:020000040000fa
:0402840080040000f2
:020000040000fa
:0402880080040000ee
:020000040000fa
:04028c0080040000ea
:020000040000fa
:0402900080040000e6
:020000040000fa
:0402940080040000e2
:020000040000fa
:0402980080040000de
:020000040000fa
:04029c0080040000da
:020000040000fa
:0402a00080040000d6
:020000040000fa
:0402a40080040000d2
:020000040000fa
:0402a80080040000ce
:020000040000fa
:0402ac0080040000ca
:020000040000fa
:0402b00080040000c6
:020000040000fa
:0402b40080040000c2
:020000040000fa
:0402b80080040000be
:020000040000fa
:0402bc0080040000ba
:020000040000fa
:0402c00080040000b6
:020000040000fa
:0402c40080040000b2
:020000040000fa
:0402c80080040000ae
:020000040000fa
:0402cc0080040000aa
:020000040000fa
:0402d00080040000a6
:020000040000fa
:0402d40080040000a2
:020000040000fa
:0402d800800400009e
:020000040000fa
:0402dc00800400009a
:020000040000fa
:0402e0008004000096
:020000040000fa
:0402e4008004000092
:020000040000fa
:0402e800800400008e
:020000040000fa
:0402ec00800400008a
:020000040000fa
:0402f0008004000086
:020000040000fa
:0402f4008004000082
:020000040000fa
:0402f800800400007e
:020000040000fa
:0402fc00800400007a
:020000040000fa
:040300008004000075
:020000040000fa
:040304008004000071
:020000040000fa
:04030800800400006d
:020000040000fa
:04030c008004000069
:020000040000fa
:040310008004000065
:020000040000fa
:040314008004000061
:020000040000fa
:04031800800400005d
:020000040000fa
:04031c008004000059
:020000040000fa
:040320008004000055
:020000040000fa
:040324008004000051
:020000040000fa
:04032800800400004d
:020000040000fa
:04032c008004000049
:020000040000fa
:040330008004000045
:020000040000fa
:040334008004000041
:020000040000fa
:04033800800400003d
:020000040000fa
:04033c008004000039
:020000040000fa
:040340008004000035
:020000040000fa
:040344008004000031
:020000040000fa
:04034800800400002d
:020000040000fa
:04034c008004000029
:020000040000fa
:040350008004000025
:020000040000fa
:040354008004000021
:020000040000fa
:04035800800400001d
:020000040000fa
:04035c008004000019
:020000040000fa
:040360008004000015
:020000040000fa
:040364008004000011
:020000040000fa
:04036800800400000d
:020000040000fa
:04036c008004000009
:020000040000fa
:040370008004000005
:020000040000fa
:040374008004000001
:020000040000fa
:0403780080040000fd
:020000040000fa
:04037c0080040000f9
:020000040000fa
:0403800080040000f5
:020000040000fa
:0403840080040000f1
:020000040000fa
:0403880080040000ed
:020000040000fa
:04038c0080040000e9
:020000040000fa
:0403900080040000e5
:020000040000fa
:0403940080040000e1
:020000040000fa
:0403980080040000dd
:020000040000fa
:04039c0080040000d9
:020000040000fa
:0403a00080040000d5
:020000040000fa
:0403a40080040000d1
:020000040000fa
:0403a80080040000cd
:020000040000fa
:0403ac0080040000c9
:020000040000fa
:0403b00080040000c5
:020000040000fa
:0403b40080040000c1
:020000040000fa
:0403b80080040000bd
:020000040000fa
:0403bc0080040000b9
:020000040000fa
:0403c00080040000b5
:020000040000fa
:0403c40080040000b1
:020000040000fa
:0403c80080040000ad
:020000040000fa
:0403cc0080040000a9
:020000040000fa
:0403d00080040000a5
:020000040000fa
:0403d40080040000a1
:020000040000fa
:0403d800800400009d
:020000040000fa
:0403dc008004000099
:020000040000fa
:0403e0008004000095
:020000040000fa
:0403e4008004000091
:020000040000fa
:0403e800800400008d
:020000040000fa
:0403ec008004000089
:020000040000fa
:0403f0008004000085
:020000040000fa
:0403f4008004000081
:020000040000fa
:0403f800800400007d
:020000040000fa
:0403fc008004000079
:020000040000fa
:100400000fa320000e7f22000e01880000000000d4
:10041000000020000000e000020032000001200087
:100420002002880014000700370107000000e000e8
:1004300003003a00e0f6210001002000020037002e
:100440000000200001002000810f70000100320038
:1004500014000700000020000000e000020032004d
:100460000000020000000000161f02000000000053
:100470000040da000000fe004440a9008013200084
:100480000000e000030032000020200090018800fe
:100490004440a800000006008a1f78008b1f7800e7
:1004a00000000600a1028800800478000000eb0034
:1004b0001f003700e284440054a0b4009905ba003c
:1004c000e284440054a0b4009906ba00e2844400d7
:1004d00054a0b4000006eb00476fde00fd07b20039
:1004e000ae018800636ce10003003a00eaff0700f8
:1004f0000000eb000e003700606ce10008003a00dd
:10050000004deb000a05e800020039003420ec0041
:100510000af0a0008b05e900f9ff3e000400370057
:100520006168e100010032000086eb000b0007006b
:1005300019c7ba001905ba000e04e00003003a001a
:100540000a00e000dbff3a0000000600fe07b200f0
:10055000ae0288008a047800f5ff37000cd0a300b3
:10056000e20f4d001c00390089027800354dba00b9
:100570000a05e800020039003420ec000af0a0006f
:100580008b05e9000f003200254dba000a05e8008e
:10059000020039003420ec000af0a0008b05e900cd
:1005a000080032000c00e0000600320015cdba0051
:1005b0000a05e800020039003420ec000af0a0002f
:1005c0008b05e9008984e80054a0b4000b00e0002a
:1005d000e2ff3a00000006009902ba00055d7800cb
:1005e0008b05e900f7ff3200c82ade00055d7800c0
:1005f0008b05e900f3ff32000c00e000f1ff320050
:1006000019ddba00eeff3700000000000000000016
:100610003600f800809fbe00829fbe00849fbe000f
:10062000869fbe003200f8003400f8001000200061
:10063000a001880000202000900188000000fa003e
:10064000d70107000080fa003400f9003200f900f9
:100650004f03be004f02be004f01be004f00be0060
:100660003600f900004006003600f800809fbe000a
:10067000829fbe00849fbe00869fbe003200f800ad
:100680003400f80010002000a001880000202000a5
:10069000900188000800fa000000eb0010079800a5
:1006a0006000b800200798003107980086003700e6
:1006b00000c0eb00004f7800711580001107980012
:1006c000204280009e009000008050008000eb00df
:1006d0002007980031079800be009000800320009a
:1006e0000088b900000178002e0090006000b90079
:1006f0000000780000014100ae009000800320005f
:100700000008b8000101410082007800200798002d
:100710003107980020079800310798002e019000bb
:10072000be019000f0572b0011002000800f5100f7
:10073000818f590003003e0000c0eb00004f78009d
:100740005c0037002e019000be019000f0c722002f
:1007500031002000800f5100818f590003003e00be
:100760000040eb00004f7800520037002e0190004f
:10077000be019000f0372a0041002000800f510098
:10078000818f590003003e0010c0b300004f780075
:10079000480037002e019000be019000f0a7210014
:1007a00061002000800f5100818f590003003e003e
:1007b00020c0b300004f78003e0037002e019000ab
:1007c000be019000f017290071002000800f510039
:1007d000818f590003003e0030c0b300004f780005
:1007e000340037002e019000be019000f0872000f9
:1007f00091002000800f5100818f590003003e00be
:1008000040c0b300004f78002a0037002e0190004e
:10081000be019000f0f72700a1002000800f5100da
:10082000818f590003003e0050c0b300004f780094
:10083000200037002e019000be019000f0672f00cd
:10084000b1002000800f5100818f590003003e004d
:1008500060c0b300004f7800160037002e019000f2
:10086000be019000f0d72600d1002000800f51007b
:10087000818f590003003e0070c0b300004f780024
:100880000c0037002e019000be019000f0b725004b
:1008900001012000800f5100818f590003003e00ac
:1008a00090c0b300004f780002003700a0c0b30032
:1008b000004f78009e407800c0832000810c070024
:1008c0009e00900021428800501580006800600062
:1008d0000000e00076ff3a008420a9000080fa00c2
:1008e0003400f9003200f9004f03be004f02be0091
:1008f0004f01be004f00be003600f9000040060068
:100900000040da000000fe000000050080017800d1
:1009100002003700b15978000201e9000200e0004e
:10092000fcff3a000000060080017800020037005a
:10093000815978000201e9000200e000fcff3a0062
:0409400000000600ad
:020000040000fa
:100944000501000009060000a101000005070000e0
:1009540019e0000029e7000015000000250100004f
:100964007501000095080000810200009501000057
:100974007508000081030000950500007501000062
:10098400050800001901000029050000910200007b
:100994009501000075030000910300009506000016
:1009a400750800001500000025650000050700001b
:1009b4001900000029dd000081000000c0000000d3
:1009c400b0000000b1000000bc000000c500000041
:1009d400c8000000d7000000d8000000dd000000bf
:1009e4002a00000034000000910000009000000084
:1009f400200000002100000022000000230000006d
:100a04004b0000002b00000088000000870000005d
:100a14000800000015000000170000001c00000082
:100a24004b00000039000000040000001600000024
:100a340007000000090000000a0000000000000098
:100a44004e000000011000001d0000001b0000000b
:100a5400060000001900000005000000000000006e
:100a64004e00000000000000001000000310000011
:100a7400021000002c00000000f000000000000044
:100a84001201000000020000000000000008000045
:100a9400d80400005500000001000000010200001d
:100aa400000100000902000029000000010100000b
:100ab40000c0000032090000040000000002000031
:100ac40003010000010000000921000011010000e1
:100ad40000010000223f0000000700000581000023
:100ae40003080000000100000705000001030000e6
:100af40008000000010000000403000009040000d5
:100b0400340300004d000000690000006300000091
:100b1400720000006f000000630000006800000025
:100b24006900000070000000200000005400000074
:100b34006500000063000000680000006e00000013
:100b44006f0000006c0000006f00000067000000f0
:100b54007900000020000000490000006e00000041
:100b6400630000002e0000001c0300004b00000086
:100b74006500000079000000620000006f000000c2
:100b8400610000007200000064000000200000000a
:100b940044000000650000006d0000006f000000cc
:100ba400548500007e85000082850000b685000023
:020000040000fa
:100bb4000200fa009ec0a9008ac1a8000080eb00d0
:100bc400702088000080eb00502088002a24ef0069
:100bd400220020008000eb00c042200051ff0700eb
:100be40020002000302188002824ef000644a900ba
:100bf400f009200080208800f0092000602088008f
:100c040002c4a8000804a80000a020004800de00d8
:100c1400c02088000040eb00004f78000700370038
:100c24001e80fb00c200dd0000a020000081400007
:100c34006000b8000089be001e4fe8001e40780026
:100c4400e74f5000f6ff36001424a8001624ef00e6
:100c540014a4a9001424a9008000200050208800b6
:100c6400009c20008040eb0001487800609c20003c
:100c74008040eb0001487800314e8000f00f2000e6
:100c840000806000304e8800414e800000f02f004c
:100c940000806000404e88005020800068006000a2
:100ca4000000e000ecff3a0010c0b3001be8b700fe
:100cb40010c0b3001ce8b7001d68ef001e68ef0009
:100cc4001568ef000040eb00004f78001700370074
:100cd4001e80fb0080004000c08020000080400097
:100ce4008000eb00010878001e80fb0080004000bb
:100cf40080802000008040008000eb000108780024
:100d04009e80fb00c09c2000008040008040eb00df
:100d1400014878009e80fb00e09c20000080400099
:100d24008040eb00014878001e4fe8001e40780028
:100d3400e14f5000e6ff360080a0200060408800ac
:100d4400d000200050218800009d20001050880011
:100d540000a0200081c0b3000148780010a020004a
:100d640041c0b3000148780010a020001040780072
:100d7400804078000174a00010a020000148780091
:100d84000268ef002028ef002228ef002468ef001b
:100d94000028ef000080fa00000006000200fa00bc
:100da40000408000e10f50000b003a00a1208000b9
:100db40000042000008060000000e00006003a000b
:100dc4000080eb00502088000c04a8000c84a800cc
:100dd4002000200000408800002080007000600097
:100de4000000e00007003200102080007000600066
:100df4000000e00003003200000120000020880011
:100e0400bb04070040208000620060000000e00096
:100e1400020032008ec0a900a300370050208000d9
:100e2400610060000000e0000a00320060208000e1
:100e3400610060000000e000060032005cff070073
:100e44009ec0a80040002000004088001000200040
:100e54005020880050208000700060000000e000f6
:100e64000500320060208000700060000000e00097
:100e740001003200910407000120800000042000da
:100e8400008060000000e000030032000004200045
:100e940000208800f70607005020800064006000ee
:100ea4000000e00014003200602080006400600054
:100eb4000000e00004003200120020008000eb007b
:100ec400300720002b0b0700400020005020880032
:100ed40019c8bf000004e0000300320019c8bf00b5
:100ee4000040e90019e8b70019c8bf000004e00099
:100ef40001003a00a50107005120800000082000ed
:100f0400008060000000e0000600320061208000e4
:100f140000082000008060000000e00001003200b2
:100f24004a04070050208000620060000000e000d6
:100f34000c00320060208000620060000000e000cd
:100f440008003200120020008000eb00f0ff2700b0
:100f5400080b07000080eb007020880020002000b0
:100f64005020880000408000e30f500002003e0043
:100f74008ec0a9004c00370060208000680060002b
:100f84000000e000470032000040eb00004f780012
:100f94003f00370050208000680060000000e0003f
:100fa4003f003200902080000040780016e8b7002f
:100fb40016c8bf000080fb004400de00004078003b
:100fc40017e8b700800020005020880016c8bf0032
:100fd400684060000004e00012003a0017c8bf0037
:100fe4000081fb008080fb00e09c2000008040002a
:100ff4009040780061c060000004a200e1406000fd
:10100400e09c200000004100e1c0600090417800b5
:10101400e2cfb30002c16100814071000148780051
:101024001100370017c8bf000081fb008080fb005f
:10103400c09c2000008040009040780061c06000a7
:101044000004a200e1406000c09c200000004100b8
:10105400e1c0600090417800e2cfb30002c16100ba
:10106400814071000148780017c8bf000004e00007
:1010740002003a002a040700040037000001eb00d4
:101084006181200020072000ba0a07001e4fe800f3
:101094001e407800e34f5000beff360001003700c9
:1010a400000000008ec0a9000080fa0000000600c5
:1010b4000400fa0020479800314798003e40900011
:1010c4000080fb00680060000000e00003003200c4
:1010d4008040eb002e4090009b0107003e409000b2
:1010e4000080fb00640060000000e00003003200a8
:1010f40011c0b3002e40900093010700a1422000cc
:101104002e4090000080fb0000004000008f400053
:101114001e007800be409000014878000080fa006c
:10112400000006000800fa002047980031479800a4
:1011340022079800634798003e4090000004e000b6
:10114400070032002e4090000080fb008000400029
:10115400c080200000804000100f78000600370097
:101164002e4090000080fb00800040008080200022
:1011740000804000100f78001e0078000000e0009e
:1011840002003a000000eb0037003700ae00900088
:101194001e007800110098001e007800ee409000b8
:1011a400014878001e0078001040900002c4b3008b
:1011b400824060001e007800114098001e007800f4
:1011c40010409000804078000134a0001e00780098
:1011d400114098001e007800104090008040780074
:1011e4000174a0001e007800114098003e40900059
:1011f4000004e0000e0032002e4090000080fb004e
:10120400ae4090008180fb0001814000c18020003d
:1012140081004100910078000120a20000014000fb
:10122400c080200000004100010878000d00370054
:101234002e4090000080fb00ae4090008180fb00b7
:1012440001814000818020008100410091007800ec
:101254000120a20000014000808020000000410025
:10126400010878001e0078000080fa0000000600e3
:101274000400fa0020479800314798002e4090005f
:101284000004e00017003a003040800081c0b30041
:101294000148780030408000019d20001100980032
:1012a40030408000c1c0b30011409800304080003d
:1012b40031408000914090000174a00011409800da
:1012c4006040800041c0b30011409800604080003d
:1012d40061408000914090000174a000114098008a
:1012e4002e0037002e4090000080fb0000004000dc
:1012f400800078003e4090000080fb0000804000a9
:101304004300dd008000780000a02000008f400032
:101314001e00780010409000804078000124a00056
:101324001e007800114098001e00780010409000c4
:10133400804078000174a0001e00780011409800dd
:101344002e4090000080fb000000400080007800e8
:101354003e4090000080fb00008040004300dd0020
:10136400e400400000a02000008f40001e00780030
:1013740010409000804078000124a0001e007800f6
:10138400114098001e0078001040900080407800c2
:101394000174a0001e007800114098000080fa003b
:1013a400000006000200fa00004f7800a12080002f
:1013b40000022000008060000000e00051003200c4
:1013c4001e80fb0080004000c080200000804000a0
:1013d400100278001e80fb0080004000c0802000c6
:1013e40000804000100078001001be0000042000be
:1013f4000100200082027800030178008001780057
:101404000100780083826200000061008000eb002c
:10141400c000dd00000020000001be006128b8000b
:101424000001710081817100028abe001e80fb00f0
:1014340080004000c080200000804000100278003e
:101444001e80fb0080004000c0802000008040001f
:10145400100078001001be000004200001002000ec
:101464000000690081806900008abe001e80fb00c4
:101474009e80fb0001814000c1802000810041006a
:10148400910078000120a20000014000c0802000eb
:1014940000004100010878001e80fb00800040002d
:1014a400c080200000804000900078001e80fb0077
:1014b40000014000c08020000000410010007800be
:1014c400104090000044b200904098001e80fb0041
:1014d40080004000c0802000008040009000780020
:1014e4001e80fb0000014000c0802000000041007d
:1014f400100078001041900000c4b300004069005f
:10150400904098000080fa00000006000000fa00f5
:101514001424ef000c24ef000028ef000080fa00f0
:10152400000006000000fa00004080000000e00017
:1015340014003a001424ef000c24ef0020002000d3
:10154400302188002824ef000644a900f009200077
:1015540080208800f00920006020880002c4a800d0
:101564009ec0a800010037001404a800a020800039
:10157400610060000000e000fbff3200100020006a
:10158400004088000080fa00000006000000fa0015
:101594001bc8bf000004a2000004e00034003200b5
:1015a40010c0b3001be8b7001cc8bf000004a200b1
:1015b4000004e0002e00320010c0b3001ce8b700a5
:1015c40011c8bf00e24f50000c003a006040800098
:1015d4008040eb00014878006040800081c4b30083
:1015e400114098006040800061408000914090006c
:1015f4000174a000114098001d00370011c8bf00fd
:10160400e14f50001a003a001868ef0020408000b3
:1016140081c0b3000148780020408000019d200073
:10162400110098002040800041c0b3001140980090
:101634002040800021408000914090000174a0006f
:101644001140980010c0b30018e8b7003040800083
:1016540081c0b3000148780030408000019d200023
:10166400110098003040800001c8b3001140980078
:101674000080fa00000006000000fa001d68ef0078
:101684001e68ef0011c8bf00e24f50000f003a007f
:101694003040800081c0b3000148780030408000b1
:1016a400819d2000110098003040800081c4b30067
:1016b40011409800304080003140800091409000fb
:1016c4000174a000114098001d003700609d2000a7
:1016d4001080fb00719d20009180fb00c808dd0094
:1016e4000100700080007800104e8000808f500050
:1016f40007003100609d20001080fb00719d2000d8
:101704009180fb00c808dd0001007000104e8800c5
:101714009800070060408000819d2000110098001f
:101724006040800081c4b300114098006040800094
:1017340061408000914090000174a0001140980025
:101744000080fa00000006000400fa002047980018
:101754003147980000a02000000f78002e40900030
:101764000080fb0000004000800078003e409000b4
:101774000080fb00008040004300dd001e0f40009d
:101784001e00780010017800f1ff2700810061003d
:10179400010878003e4090000004e00007003a0091
:1017a4002e4090000080fb008000400080802000dc
:1017b400008040001e087800060037002e4090008c
:1017c4000080fb0080004000c080200000804000ba
:1017d4001e0878001e00780010017800f1ff2b002d
:1017e40081006100010878009e0078006480400058
:1017f4009000780001e0a000010878000080fa0061
:10180400000006000000fa0014a4a900014e8000a4
:1018140000082000008060000000e00027003a007b
:10182400609c20009040780000c8b30000c06000b5
:101834000004e0000a00320020c0b30011e8b70041
:101844001ec8bf000004a2000004e0000100320032
:1018540089ff07001c68ef001b68ef004300370096
:101864003040800081c0b3000148780030408000df
:10187400019d20001100980030408000c1c0b300d9
:101884001140980030408000314080009140900029
:101894000174a000114098006040800041c0b30072
:1018a40011409800604080006140800091409000a9
:1018b4000174a000114098002c003700009d200006
:1018c4009040780000c8b30000c060000004e0004d
:1018d4000f00320010c0b30011e8b7001dc8bf00ec
:1018e4000004a2000004e0000100320062ff0700cf
:1018f4001c68ef001b68ef001ac8bf000004a200b8
:101904000004e0001900320020ff07001700370030
:1019140020c0b30011e8b7003040800081c0b3009c
:101924000148780030408000019d2000110098009b
:101934003040800041c0b300114098003040800026
:1019440031408000914090000174a0001140980043
:101954001c68ef001b68ef001ac8bf000004a20057
:101964000004e0000100320008ff07000080fa00d4
:10197400000006000200fa0080c0b300004f7800a7
:10198400104e8000e70f50000d003e00104e800006
:10199400004f780010c8bf000004e00003003a00c4
:1019a40010c0b30010e8b7000500370010c8bf002e
:1019b400e14f500002003a0020c0b30010e8b70025
:1019c400114e80001e80fb0000805000104e8800e5
:1019d400604080001e487800809d20009040880070
:1019e400004e8000610060000000e00017003a0033
:1019f4000900370091408000f04d800010417800cc
:101a0400824878008100e800914088000000e800e6
:101a1400f04d88001e4fe9001e4078000004e000ed
:101a2400f4ff3a000c00370091408000f04d800034
:101a340010417800824878008100e80091408800d5
:101a44000000e800f04d88001e4fe9001e407800b9
:101a54000004e000f4ff3a000080fa0000000600f1
:101a64000200fa0020408000104f78009e80fb00a6
:101a7400304e80004800de00434e8000f20f20000c
:101a8400028161004811dd0002007000808f500067
:101a940008003600304e80004800de00424e8000d0
:101aa400f10f200081006100c808dd000100700012
:101ab400004f7800304e80004800de00424e800027
:101ac400f10f200081006100c808dd0001007000f2
:101ad400800078001e80fb0000805000f10f200081
:101ae40081006000c808dd00334e8000f20f200042
:101af4000281610082807000314e8800c800de00df
:101b0400f00f200000806000424e800001f02f00a2
:101b14008100610001007000404e88000040eb002d
:101b2400104798000c003700204e80009e40900023
:101b34000181fb00819d20008100410091407800db
:101b4400014878000000e800204e88001e40900004
:101b54000040e800104798001e4090009e4f50003f
:101b6400f1ff3900304e80004800de00424e800014
:101b7400f10f200081006100c808dd000100700041
:101b84000000e0001e0032003040800081c0b3003d
:101b94000148780030408000819d200011009800a9
:101ba4002040800090007800000024000080600045
:101bb4000000e00009003a003040800081c4b30016
:101bc40011409800304080003140800091409000e6
:101bd4000174a000114098003100370030408000ab
:101be40081c0b30011409800304080003140800033
:101bf400914090000174a000114098002800370023
:101c04003040800081c0b30001487800304080003b
:101c1400019d2000110098003040800041c0b300b5
:101c24001140980030408000314080009140900085
:101c34000174a00011409800404e80004800de006e
:101c4400524e8000f10f200081006100c808dd00c1
:101c5400010070000000e00008003200404e8000e7
:101c64004800de00524e8000f10f20008100610028
:101c7400c808dd000100700000000100314e800042
:101c8400f0f72f0000806000304e88001ac8bf00b3
:101c94000004a2000004e000010032003bfe070043
:101ca4000080fa00000006000200fa00004e8000e6
:101cb4000070a000004e8800220020008000eb008d
:101cc400c042200017fb0700020220008000eb0046
:101cd40000a0200013fb07001424a8000040eb0020
:101ce400004f78000b0037009e80fb00c09c200052
:101cf400008040008040eb00014878009e80fb009b
:101d0400e09c2000008040008040eb000148780007
:101d14001e4fe8001e407800e14f5000f2ff3600ed
:101d2400120020008000eb0030802000fdfa070044
:101d34001424a90080a020006040880000a0200096
:101d4400204088002040800030408800209d2000f2
:101d54001040780002e8b70002c8bf000004e000a9
:101d640003003a000001200000408800060037000c
:101d74001200200021802000100020007d070700b1
:101d840000022000004088000080fa0000000600e5
:101d94000000fa00009d20009040780000c8b300c5
:101da40080cf500047003a00009c200001ccb300d3
:101db40001487800309d2000104078000080fb002e
:101dc400e20f500009003200e30f500023003200fc
:101dd400e10f500037003a0020542800f04d8800ed
:101de40020012000104e880036003700209d20007e
:101df400104078000004e00014003a00209d200008
:101e0400104078000080fb00000040008000780053
:101e1400205d28000080400010007800f04d88000c
:101e2400f04d80000080e80090407800209c200065
:101e340001487800f04d8000630040009040780035
:101e4400309c2000014878001e003700009c2000d0
:101e54008040eb00014878001a003700209d2000e4
:101e640010407800e24f50000e003e00209d2000fc
:101e7400104078000080fb000000400080007800e3
:101e8400405d28000080400010007800f04d88007c
:101e9400f04d8000104078000080fb00104e880058
:101ea40008003700009c20008040eb0001487800c7
:101eb40004003700009c20008040eb0001487800bb
:101ec400000000000080fa00000006000200fa0092
:101ed400809d20008040eb0001487800909d200008
:101ee4008040eb0001487800009d2000904078007d
:101ef4007fc060000080fb00e10f50001100320041
:101f0400e20f5000130032000000e00040003a00ed
:101f1400004e80000070a000004e880014c8bf006e
:101f24000004e00035003200809d2000104078005d
:101f3400804078000114a000809d200001487800b2
:101f440033003700004e80000070a000004e88006f
:101f54002f003700004e80000070a000004e880063
:101f6400409d20009040780000c8b30000c060008d
:101f74000004e00009003a00409d200090407800f1
:101f84006fc060000080fb00800040008080200063
:101f940000804000100f780008003700409d2000aa
:101fa400904078006fc060000080fb00800040001b
:101fb400c080200000804000100f78001e007800d0
:101fc4009000780000002800008060000000e0001d
:101fd4000c0032001e0078009000780000402000c1
:101fe400008060000000e00008003200809d2000b6
:101ff40011c0b3000148780005003700000000005c
:10200400030037000000000001003700000000005a
:10201400014e800000082000008060000000e00005
:1020240008003200809d2000f04d8800004e8000a2
:102034000000a000004e8800209c200021c0b300b6
:10204400014878000080fa00000006000000fa0051
:1020540050218000620060000000e00013003200a4
:10206400204080009040900000c8b30080cf500012
:102074000d003a00604080009040900040c8b300da
:1020840080cf500008003a0020408000c1c0b30057
:102094001140980020408000214080009140900031
:1020a4000174a000114098002a24a900000820000f
:1020b400502088000080fa00000006000000fa00aa
:1020c4000284a800000120005020880010c0b30042
:1020d40015e8b7002468ef000001eb008000eb0076
:1020e40050072000a30607000080fa000000060045
:1020f4000000fa001568ef000001eb008000eb001f
:10210400400720009b0607000284a900000120006c
:10211400002088002468ef000080fa000000060018
:102124000000fa00d0c2b30019e8b70016c8bf0017
:102134008080fb00b0ff2f00008060000000e00002
:102144001f003a0016c8bf000080fb004200de00fa
:10215400004078000080fb00c200dd0000a02000e9
:1021640000804000204088002040800030408800eb
:10217400304080000020a2003040880020408000d1
:102184009000780000c0230080806000004023009d
:10219400808f500008003a0020408000100090001a
:1021a4008200200080007800009d2000d6f90700fe
:1021b4000c000700090037003e0007000700370045
:1021c40016c8bf008080fb00b0ff2f0000806000b5
:1021d400e80f500001003a00530007000080fa00a5
:1021e400000006000000fa001068ef001a68ef0013
:1021f4001d68ef001e68ef001868ef001168ef001b
:102204006040800061408000914090000174a10012
:1022140011409800604080000020a20060408800c7
:102224006040800061408000914090000174a100f2
:1022340011409800604080000020a20060408800a7
:102244003040800031408000914090000174a10032
:1022540011409800009c20008040eb000148780069
:102264000000eb00104e8800609c20008040eb00d2
:1022740001487800314e8000f00f2000008060009b
:10228400304e8800414e800000f02f000080600036
:10229400404e8800840007000001eb008000eb0042
:1022a400300020003306070056fd07000080fa00c6
:1022b400000006000000fa0011c8bf00e24f500001
:1022c40002003a00e6fd0700150037001168ef0030
:1022d40018c8bf000004a2000004e0000f00320090
:1022e4003040800081c0b300014878003040800055
:1022f400019d20001100980030408000c1c0b3004f
:10230400114098003040800031408000914090009e
:102314000174a00011409800010037001868ef0014
:102324000080fa00000006000200fa00604080000d
:10233400100078004e00de0061406000004f78001d
:10234400604080000020a2006040880000408000bf
:10235400e80f50000e003a00209d20001040780045
:102364008080fb00f007200000806000b02088001f
:10237400b02080000000e0000300320000012000d3
:102384000040880002003700400020000040880020
:1023940011c8bf00e14f500025003a0060408000a2
:1023a400819d20001100980072fd070010c8bf0035
:1023b400e24f500009003a006040800041c0b30081
:1023c400114098006040800061408000914090007e
:1023d4000174a00011409800310037001e407800bd
:1023e4000004e00009003a006040800081c4b300aa
:1023f400114098006040800061408000914090004e
:102404000174a0001140980025003700604080004e
:1024140081c0b3001140980060408000614080009a
:10242400914090000174a000114098001c003700f6
:10243400609c20009040780000c8b30000c0600099
:102444000004e00015003200404e80004800de0029
:10245400524e8000f10f200081006100c808dd00a9
:10246400010070000000e00008003200404e8000cf
:102474004800de00524e8000f10f20008100610010
:10248400c808dd000100700000000100314e80002a
:10249400f0f72f0000806000304e88001168ef00d4
:1024a4000080fa00000006000000fa00009d2000f1
:1024b400104078000046b2000004e00051003a00e9
:1024c400109d2000104078000080fb00cf80de00cb
:1024d400b200200003002000820f5000838f5800b8
:1024e4004a003e000060010021003700220037004e
:1024f4004800370020003700460037000600370048
:102504000b0037003a0037000d0037000a0037008f
:102514001b0037002a003700004e80000070a00026
:10252400004e880080002000004088003a003700f8
:1025340017fe070038003700dbfd070036003700c0
:1025440020802000f04d8800004e80000000a00094
:10255400004e8800209c200011c0b3000148780080
:10256400004e80000070a000004e88002a00370052
:1025740056fe070028003700290007002600370010
:10258400409d2000104078008080fb0030802000b7
:1025940000804000f04d8800004e80000000a00044
:1025a400004e8800209c200011c0b3000148780030
:1025b400004e80000070a000004e88001600370016
:1025c400004e80000070a000004e8800409d200056
:1025d400104078000081fb00209d2000904078008e
:1025e4003080200000004100014878000a003700d4
:1025f4000001eb008000eb00200020005d050700d7
:102604000500370000000000030037000000000050
:1026140001003700000000000080fa0000000600fe
:102624000600fa00209d200010407800e14f500081
:1026340010003a00009d2000104078007f406000a8
:102644000004e0000b003a00004e80000070a0007f
:10265400004e8800109d200010407800e34f500089
:1026640003003a0010c0b30014e8b70001003700bb
:102674001468ef00209d2000104078000004e00062
:10268400fa003a00009d2000104078007f4060006e
:10269400e24f5000f5003a00409d200010407800c1
:1026a4006f4060000004e000f0003200409d200014
:1026b400904078006fc060000080fb00e10f500084
:1026c400ea003c000140800000022000808f50009e
:1026d400e6003a00004e80000070a000004e880022
:1026e400409d20009040780000c8b30000c0600006
:1026f4000004e00011003a00409d200010417800e1
:102704006f4061000080fb0080004000808020005a
:1027140000804000100f7800409d20009040780019
:102724006fc060008080fb00e09c200000804000bf
:10273400104078004047980010003700409d20006a
:10274400104178006f4061000080fb008000400071
:10275400c080200000804000100f7800409d2000c1
:10276400904078006fc060008080fb00c09c200017
:102774000080400010407800404798004e40900090
:10278400614060000004e00005003a009e0078000b
:10279400b0ff2f0000806000000f780003003700b6
:1027a4001e0078000020a000000f7800409d20004b
:1027b4009040780000c8b30000c060000004e0004e
:1027c4000a003a00409d2000104178006f406100eb
:1027d4000080fb009e007800000140008080200003
:1027e400000041000108780009003700409d2000e6
:1027f400904078006fc060000080fb009e0078006d
:1028040000014000c0802000000041000108780061
:10281400109d200010407800e34f50002c003a0037
:102824001e007800900078000000280000806000fe
:102834000000e00019003200409d20009040780024
:1028440000c8b30000c060000004e0000a003a00c1
:10285400409d2000104178006f4061008080fb00a3
:10286400e09c200000804000904078000114a0000b
:102874000148780009003700409d2000904078000e
:102884006fc060008080fb00c09c2000008040007e
:10289400904078000114a000014878001e007800e0
:1028a40010409000804078000124a0001e007800b1
:1028b400114098001e00780010409000804078007d
:1028c4000174a0001e0078001140980067003700d2
:1028d4001e0078000020a200000f78001e0078007f
:1028e4009000780000002800008060000000e000f4
:1028f400110032001e0078001040900080407800e3
:102904000174a1001e007800114098001e00780098
:1029140010409000804078000164a0001e00780000
:1029240011409800220020009e00780050002000f2
:1029340090040700060037001e0078001040900045
:10294400804078000164a0001e00780011409800c7
:102954001e0078000020a200000f78004e40900076
:10296400624060000004e00006003a001e007800a7
:102974009000780000002800008060000000e00063
:1029840026003200409d20009040780000c8b3002b
:1029940000c060000004e0000b003a00409d2000ed
:1029a400104178006f4061008080fb00e09c2000b3
:1029b4000080400010417800d1cfb3008140610015
:1029c400014878000a003700409d200090407800bc
:1029d4006fc060008080fb00c09c2000008040002d
:1029e40010417800d1cfb3008140610001487800e4
:1029f4001e00780010409000b2c3b3008240600013
:102a04001e00780011409800220020009e007800eb
:102a14005000200057040700060037001e0078000d
:102a240010409000b2c3b300824060001e007800e2
:102a340011409800a1422000409d200010417800e0
:102a44006f4061000080fb000000400000804000f7
:102a5400100798001e00900090407800d0cfb3007b
:102a640080c060001e009000014878000080fa00d9
:102a7400000006000000fa000041800011418000bf
:102a840061004000e0804800004188001141880056
:102a940015c8bf000004a2000004e00008003200d2
:102aa40024c8bf000040e80024e8b70024c8bf00e1
:102ab4000004e00002003a0000c0eb0024e8b70084
:102ac4000080fa00000006000400fa0002418000c1
:102ad40013418000028fbe0000418000114180003c
:102ae4001e01be00800f5100818f5900f7ff3a008c
:102af4001e00be000080fa00000006000000fa007c
:102b04002628ef00401f20005041880002003700b3
:102b140010428000704188007141800010428000a2
:102b2400808f5000faff3a00d1c1b30010c0b30047
:102b34005ff9070023c0b300029520008040eb003a
:102b440010c0b30077f90700404188000080fa0004
:102b5400000006000800fa0000408000ff0f50004b
:102b64001e01360040208000620060000000e0008a
:102b74000600320010002000740407001a01370018
:102b8400104280006041880001003700000000000e
:102b94006141800010428000808f5000f8ff3a00ad
:102ba4006141800070418000008f50001e00780059
:102bb4000000e00005003d0070418000f1ff2700a7
:102bc4008080500060418000008f400080382100e8
:102bd4009e007800808f5000040034006141800022
:102be40080c72e0000804000704188003041800082
:102bf4000000e000060032003041800090007800c0
:102c040000002800008060000000e000e2003a00bc
:102c140030c8bf007f4060000080fb007f00600080
:102c24002212800001fe2f0081006100010070006b
:102c3400201288009d003700c0832000b0030700e5
:102c4400604798006e409000e74f50002b003e0014
:102c540030c8bf000004e0009400320030c8bf0058
:102c64000080fb0061006000004078000004e00088
:102c74001300320030c8bf000080fb000000d10008
:102c8400004078000081fb0030c8bf000080fb00da
:102c94000000d100004078008080fb00a095200057
:102ca40000804000904078006e40900080c070002a
:102cb400a095200000004100014878000b00370077
:102cc40030c8bf000080fb000000d1000040780045
:102cd4000081fb00ee409000300020008008dd0001
:102ce400a0952000000041000148780030c8bf00d2
:102cf4000040e80030e8b7006c0037006e409000f8
:102d0400e94f500016003a008fe1a8000040eb00a4
:102d140040479800090037004e4090008080fb0037
:102d2400a09520000080400080c0eb00014878009e
:102d34004e4090000040e800404798004e4090000c
:102d4400e54f5000f4ff3600a09520008040eb00d2
:102d54000148780010c0b30030e8b70053003700d2
:102d64006e409000ea4f50004f003a008fe1a900f6
:102d740030c8bf000080fb006100600000407800a4
:102d84000004e00046003200a095200010407800c6
:102d9400e44f500042003a000040eb0050479800d6
:102da4000040eb0050479800270037005e40900039
:102db4000080fb008000e800a09520000080400017
:102dc400104078000080fb00f102200000805000d9
:102dd40080004000204e28000080400090007800d1
:102de40000002f00008060000000e00013003a00a3
:102df4005e4090000081fb005e4090000080fb007c
:102e04008000e800a0952000008040001040780079
:102e14000080fb00f1022000008050008000400090
:102e2400204e280000804000100078008040780088
:102e3400a094200000004100014878005e4090000a
:102e44000040e800504798005e4090000080fb007e
:102e54008000e800a09520000080400090407800a9
:102e6400f0c2b30080cf5000d0ff36000900370015
:102e74005e4090008080fb00a09420000080400011
:102e84008040eb00014878005e4090000040e8007c
:102e9400504798005e409000e54f5000f4ff360024
:102ea4003068ef00010037003068ef00f183200044
:102eb400914078003ec8bf0080cf50005eff3a00ca
:102ec4000040eb00304798000040eb00204798009a
:102ed400120037002e4090008080fb0020952000d7
:102ee40000804000904078002e4090000081fb005c
:102ef40080942000000041001040780080cf5000f2
:102f04000300320010c0b3003047980006003700b9
:102f14002e4090000040e800204798002e4090008a
:102f2400e74f5000ebff3600504180000000e00006
:102f340006003200504180009e007800808f5000cf
:102f44000200350010c0b300304798003e409000a6
:102f54000004e00010003200424a8000534a80001e
:102f6400924a8800a34a8800624a8000734a80001b
:102f7400b24a8800c34a880083c0b3008294200008
:102f840011c0b30010c0b30066f8070030418800d8
:102f94006041800070418800404180000000e000f2
:102fa40006003200404180009000780000002800b4
:102fb400008060000000e0000a003a000c000700f6
:102fc40023c0b300029520008040eb0010c0b30082
:102fd40054f8070040418800030037000000000057
:102fe40001003700000000000080fa000000060025
:102ff4000000fa0000952000104078006240600054
:103004000004e00003003200200020005c010700ff
:103014000200370020002000720107000095200004
:1030240010407800614060000004e00003003200ba
:103034003000200052010700020037003000200059
:10304400680107000080fa00000006000000fa0092
:10305400809d200090407800009520000148780071
:10306400e3ff07000080fa00000006000000fa00f9
:10307400809d2000f10f200001016000419c200090
:1030840091417800e0c1610002c17100824878007a
:10309400c800de00509c20001041780060416100af
:1030a4008140710001487800709c200090407800b5
:1030b400e0c060000134a00001487800809c20003a
:1030c40090407800e0c060000148780080822100d0
:1030d400f10f200001016000919c200091417800d3
:1030e400e0c1610002c1710082487800c800de00be
:1030f400a09c200010417800604161008140710073
:1031040001487800609c2000904078000174a00081
:10311400014878000080fa00000006000200fa006e
:10312400004f7800114798001e4078000004e0002a
:1031340003003a001e4090000080fb0050418800cc
:103144000080fa00000006000000fa00a600070054
:1031540014c8bf000004e0000100320015c8bf001d
:103164000040fe005120800000022000008060002a
:103174000000e00002003a0010c0b3004100070064
:10318400d200070010c0b3000080fa00000006005f
:103194000000fa0014c8bf000004e000360032004a
:1031a40015c8bf000004e000330032004020800056
:1031b400620060000000e000010032000824a90061
:1031c40075000700000420000020880000000000b3
:1031d4000120800000042000008060000000e00066
:1031e400fbff3200000420000020880000000000e3
:1031f4000120800000042000008060000000e00046
:10320400fbff3200000420000020880000000000c2
:103214000120800000042000008060000000e00025
:10322400fbff32001444a8000004200000208800a2
:1032340000000000012080000004200000806000e5
:103244000000e000fbff32000004200000208800a2
:1032540000000000012080000004200000806000c5
:103264000000e000fbff32001444a90057000700ef
:1032740010c0b300010037000040eb000080fa00ea
:10328400000006000400fa00204798004020800057
:10329400610060000000e0000b003200402080006c
:1032a400620060000000e00007003a0024c8bf008c
:1032b400e34f500004003600202080004300de006d
:1032c40061406000320037002e4090000004e000ae
:1032d4001d0032000824a9000804a8002e000700dd
:1032e4000040eb00004f7800090037000004200084
:1032f400002088000000000001208000000420005d
:10330400008060000000e000fbff32001e4fe80078
:103314001e407800e44f5000f4ff36000040eb00fc
:103324001047980020208000680060000000e00042
:103334000200320010c0b3001047980023000700b9
:103344001e409000120037004020800061006000a1
:103354000000e00002003a0000c0eb000c0037005f
:1033640040208000620060000000e00002003a009b
:10337400e0cfb3000600370024c8bf00e34f50007d
:1033840002003e00d0cfb30001003700c0cfb3002d
:103394000080fa00000006000000fa003a68ef001e
:1033a4001000fc00f1048000000420000080600094
:1033b4000000e0000200320010c0b3003ae8b70099
:1033c4009ec0a9000080fa00000006000000fa0078
:1033d4003ac8bf000004e000010032009ec0a8000b
:1033e4000080fa00000006000400fa001e00fc0041
:1033f40011028000000e20000080600090418800cf
:1034040011028000000e20000100700010028800ec
:1034140040092000100798000000eb00000f78001e
:103424000e0037001e009000900078001e00780007
:103434000001400000a220000000410001087800c3
:103444001e0090008000eb00010878001e00900030
:103454000080e800100798001e0fe8001e007800a6
:10346400e70f5000efff360060208000a041880085
:103474000c24ef0010208000b04188000224ef00eb
:10348400700680004800de00674060000080fb009a
:10349400c0418800000120000020880000022000b4
:1034a400502088008ec0a9000284a8007106800004
:1034b400f08f2f000080600000a0a000700688003c
:1034c4009ec0a8000080fa00000006000400fa0074
:1034d40040092000100798000000eb00000f78005e
:1034e4000b0037001e0078008000400000a220007e
:1034f40000804000900078001e00900001087800d1
:103504001e0090000080e800100798001e0fe800dd
:103514001e007800e70f5000f2ff3600a041800043
:1035240060208800b041800010208800c0418000e5
:1035340000407800674060000080fb006700600086
:103544004800dd0072068000f18f2f0081006100c9
:10355400010070007006880011028000f0f12f0055
:1035640080806000904180000100700090418800dc
:1035740090418000100288000080fa0000000600dc
:103584000200fa00000f78001e007800e20f5000dd
:103594000c003200e20f500003003e00e10f500027
:1035a400060032000d003700e30f50000700320020
:1035b400e40f500007003200080037008f01a80014
:1035c400060037008ee1a800040037008461a800db
:1035d400020037008441a800000000000080fa00c7
:1035e400000006000200fa00000f78001e007800b8
:1035f400e20f50000c003200e20f500003003e00c6
:10360400e10f5000060032000d003700e30f5000b8
:1036140007003200e40f50000700320008003700b2
:103624008f01a900060037008ee1a90004003700cd
:103634008461a900020037008441a9000000000051
:103644000080fa00000006000200fa00000f780073
:103654001e007800e20f500018003200e20f500004
:1036640003003e00e10f5000060032003d00370029
:10367400e30f50001f003200e40f50002b00320013
:1036840038003700700c80004800de0061406000a4
:103694000004a200614060000080fb006100600043
:1036a4004800dd00720c8000f1ef2f008100610002
:1036b40001007000700c88002a003700700c800034
:1036c4004700de00614060000004a2006140600029
:1036d4000080fb00610060004700dd00720c800088
:1036e400f1f72f008100610001007000700c880068
:1036f4001c003700200c80004300de0061406000a5
:103704000004a200614060000080fb0061006000d2
:103714004300dd00220c800071ff2f008100610056
:1037240001007000200c88000e003700200c80007f
:103734004200de00614060000004a20061406000bd
:103744000080fb00610060004200dd00220c80006c
:10375400b1ff2f008100610001007000200c88007f
:10376400000000000080fa00000006000200fa00d9
:10377400000f78001e007800e20f500013003200a2
:10378400e20f500003003e00e10f5000060032003b
:1037940027003700e30f500015003200e40f5000fb
:1037a4001b00320022003700710c80000010200042
:1037b4000080600000f0a7000000ea000000ea00ba
:1037c4004f00de00004078001a003700710c8000c2
:1037d400000820000080600000f0a7000000ea005c
:1037e4000000ea004f00de000040780011003700be
:1037f400200c80006800600000f0a7000000ea00d0
:103804000000ea004f00de000040780009003700a5
:10381400200c80006400600000f0a7000000ea00b3
:103824000000ea004f00de0000407800010037008d
:103834000040eb000080fa00000006000200fa00dd
:10384400000f78001e007800e20f50000c003200d8
:10385400e20f500003003e00e10f5000060032006a
:103864000d003700e30f500007003200e40f500052
:1038740007003200080037008b01a900060037005a
:103884008ae1a900040037008061a9000200370022
:103894008041a900000000000080fa00000006003a
:1038a4000000fa00009d2000104078007f40600076
:1038b400e14f500069003a00409d2000104078001c
:1038c4000004e00067003a00109d200010407800da
:1038d400e64f500022003a00309d2000104078004e
:1038e4000080fb0021022000810f500011003200f3
:1038f40031022000810f5000160032001102200016
:10390400810f500016003a0002c8bf00e14f50007a
:1039140012003a0060562800f04d88009000200004
:10392400104e8800009c200001ccb30001487800b0
:103934000b003700204a2800f04d8800f0032000d7
:10394400104e8800009c200001ccb3000148780090
:1039540003003700000000000100370000000000f1
:10396400009d20001040780002c6b3008240600031
:1039740000c2b30080cf50003c003a00109d2000ec
:10398400104078000080fb00e30f50002300320059
:10399400e30f500005003c00e10f500035003200f9
:1039a400e20f50000900320033003700ea0f5000e4
:1039b4000e003200eb0f500020003200e90f5000df
:1039c4002d003a00a9fd07002b00370000842000d9
:1039d400f04d880010002000104e8800009c20004c
:1039e40011ccb3000148780023003700009c20006c
:1039f40001c8b30001487800309d200010407800d1
:103a040040e8b7000184200091407800209d200008
:103a140010407800c1fd0700170037001084200013
:103a2400f04d880010002000104e8800009c2000fb
:103a340011c8b300014878000f003700009c200033
:103a440001c8b30001487800209d20001040780090
:103a540041e8b70000000000070037000000000044
:103a640005003700000000000300370000000000dc
:103a740001003700000000000080fa00000006008a
:103a84000400fa00000f7800214798001e00780017
:103a9400100178001e007800204090008080fb0018
:103aa400810041002e419000824878008040e80067
:103ab4001e007800214098000080fa0000000600f3
:103ac4000400fa00000f7800214798001e007800d7
:103ad400100178001e007800204090008080fb00d8
:103ae400810041002e419000824878008040e80027
:103af4001e007800214098000080fa0000000600b3
:103b04000400fa00100798001e00900010017800cd
:103b14001e009000304090008080fb008100410036
:103b2400114f78008040e8001e009000314098005a
:103b34001e4078000080fa00000006000400fa002d
:103b4400000f7800110798001e0078009e00900076
:103b5400010878001e0078008040eb0021409800a6
:103b64001e0078008040eb00314098000080fa008d
:103b7400000006000600fa00000f78001107980004
:103b8400220798001e00780021072000810f5000b2
:103b94002e00320021072000810f50000a003c0053
:103ba400e20f50002b003200e20f500003003c00f3
:103bb400e10f50002100320027003700e30f5000ce
:103bc400200032002400370041072000810f5000fc
:103bd4001600320041072000810f50000400350018
:103be40051072000810f50000c0032001a003700ea
:103bf4001c00070011428000f0ff2700808f500056
:103c040004003200104280000000e80010428800e6
:103c1400110037004228ef000f00370011000700a1
:103c240010002000d70007000b0037000d0007002c
:103c340020002000d300070007003700affb070077
:103c44000500370016ff07000300370000000000de
:103c5400010037000000000010c0b3000080fa002b
:103c6400000006000000fa004020800062006000ae
:103c74000000e000030032001000200059fe07009d
:103c8400300037000140800000022000808f500087
:103c940013003a0030428000e10f500003003a0064
:103ca4001000200036fe0700230037003142800058
:103cb400b0042000808f500003003a001000200060
:103cc40048fe07001c0037003142800060092000d4
:103cd400808f5000150036004628ef00160037008c
:103ce40030428000e10f500003003a001000200031
:103cf40023fe07001000370031428000200320001b
:103d0400808f500003003a001000200035fe0700a9
:103d14000900370031428000603b2000808f500052
:103d2400040036004628ef000300370000000000be
:103d34000100370000000000304280000000e8006d
:103d4400304288000080fa00000006000200fa00f9
:103d5400000f78001e007800e20f50000c003200c3
:103d6400e30f500012003200e10f500018003a0037
:103d7400100c80000000eb0000f0a7000000ea0037
:103d84000000ea004f00de00004078001100370018
:103d9400100c80000000eb0000f0a7000000ea0017
:103da4000000ea004f00de00004078000900370000
:103db400600c80000000eb0000f0a7000000ea00a7
:103dc4000000ea004f00de000040780001003700e8
:103dd4000040eb000080fa00000006000200fa0038
:103de400000f78001e007800e20f50000600320039
:103df400e30f500006003200e10f500007003a00c4
:103e04008001a800060037008021a80004003700c4
:103e14008a61a800000000000100370000000000d3
:103e24000080fa00000006000000fa0000002900eb
:103e34003008880011088000f08f2f000080600097
:103e4400100888008821ef009221ef00d11c800027
:103e540000fc2f00008060000020a000d01c88001f
:103e6400b022ef0010c0210050158800ac22ef00f2
:103e74000100370070158000501580006800600054
:103e84000000e000fbff3a008420a9009420a80071
:103e94004000200069fe0700510c8000b0ff2100a3
:103ea40000806000500c88000000eb003500070023
:103eb4003ff307009bf507008bc1a800000c20000e
:103ec4002012880081842000c08320001bff07008b
:083ed40020fb0700feff370090
:020000040000fa
:103edc00be09000022000000800000000008000065
:103eec002600000080000000000a000020000000f6
:103efc00800000004008000002000000800000006c
:103f0c00420800000200000080000000200a0000af
:103f1c001000000080000000320800000a000000c1
:103f2c0080000000e0090000140000008000000088
:103f3c004408000002000000800000004809000056
:103f4c007600000080000000260800000c00000035
:103f5c008000000046080000020000008000000005
:103f6c004808000000010000800000003c08000030
:0c3f7c00040000008000000000000000b5
:020000040000fa
:103f88000200fa00000f78001e007800e10f5000d0
:103f98000c003200e10f50000c0031008ac1a8006b
:103fa8001000200024fe07002000200022fe070049
:103fb8003000200020fe07001000200086ff0700c8
:103fc800030037005ffc0700010037000000000015
:083fd8000080fa000000060061
:020000040000fa
:020000040001f9
:0457f0003f46000030
:020000040000fa
:020000040001f9
:0457f400fff70000bb
:020000040000fa
:020000040001f9
:0457f8005f39000015
:020000040000fa
:020000040001f9
:0457fc003f3f00002b
:00000001FF
