:020000040000fa
:080000000002040000000000f2
:020000040000fa
:0400080004050000eb
:020000040000fa
:04000c0004050000e7
:020000040000fa
:0400100004050000e3
:020000040000fa
:0400140004050000df
:020000040000fa
:0400180004050000db
:020000040000fa
:04001c0004050000d7
:020000040000fa
:0400200004050000d3
:020000040000fa
:0400240004050000cf
:020000040000fa
:0400280004050000cb
:020000040000fa
:04002c005603000077
:020000040000fa
:0400300004050000c3
:020000040000fa
:0400340004050000bf
:020000040000fa
:0400380004050000bb
:020000040000fa
:04003c0004050000b7
:020000040000fa
:0400400004050000b3
:020000040000fa
:0400440004050000af
:020000040000fa
:04004800340300007d
:020000040000fa
:04004c0004050000a7
:020000040000fa
:0400500004050000a3
:020000040000fa
:04005400040500009f
:020000040000fa
:04005800040500009b
:020000040000fa
:04005c000405000097
:020000040000fa
:040060000405000093
:020000040000fa
:04006400040500008f
:020000040000fa
:04006800040500008b
:020000040000fa
:04006c000405000087
:020000040000fa
:040070000405000083
:020000040000fa
:04007400040500007f
:020000040000fa
:04007800a8040000d8
:020000040000fa
:04007c000405000077
:020000040000fa
:040080000405000073
:020000040000fa
:04008400040500006f
:020000040000fa
:04008800040500006b
:020000040000fa
:04008c000405000067
:020000040000fa
:040090000405000063
:020000040000fa
:04009400040500005f
:020000040000fa
:04009800040500005b
:020000040000fa
:04009c000405000057
:020000040000fa
:0400a0000405000053
:020000040000fa
:0400a400040500004f
:020000040000fa
:0400a800040500004b
:020000040000fa
:0400ac000405000047
:020000040000fa
:0400b0000405000043
:020000040000fa
:0400b400040500003f
:020000040000fa
:0400b800040500003b
:020000040000fa
:0400bc000405000037
:020000040000fa
:0400c0000405000033
:020000040000fa
:0400c400040500002f
:020000040000fa
:0400c800040500002b
:020000040000fa
:0400cc000405000027
:020000040000fa
:0400d0000405000023
:020000040000fa
:0400d400040500001f
:020000040000fa
:0400d800040500001b
:020000040000fa
:0400dc000405000017
:020000040000fa
:0400e0000405000013
:020000040000fa
:0400e400040500000f
:020000040000fa
:0400e800040500000b
:020000040000fa
:0400ec000405000007
:020000040000fa
:0400f0000405000003
:020000040000fa
:0400f40004050000ff
:020000040000fa
:0400f80004050000fb
:020000040000fa
:0400fc0004050000f7
:020000040000fa
:0401000004050000f2
:020000040000fa
:0401040004050000ee
:020000040000fa
:0401080004050000ea
:020000040000fa
:04010c0004050000e6
:020000040000fa
:0401100004050000e2
:020000040000fa
:0401140004050000de
:020000040000fa
:0401180004050000da
:020000040000fa
:04011c0004050000d6
:020000040000fa
:0401200004050000d2
:020000040000fa
:0401240004050000ce
:020000040000fa
:0401280004050000ca
:020000040000fa
:04012c0004050000c6
:020000040000fa
:0401300004050000c2
:020000040000fa
:0401340004050000be
:020000040000fa
:0401380004050000ba
:020000040000fa
:04013c0004050000b6
:020000040000fa
:0401400004050000b2
:020000040000fa
:0401440004050000ae
:020000040000fa
:0401480004050000aa
:020000040000fa
:04014c0004050000a6
:020000040000fa
:0401500004050000a2
:020000040000fa
:04015400040500009e
:020000040000fa
:04015800040500009a
:020000040000fa
:04015c000405000096
:020000040000fa
:040160000405000092
:020000040000fa
:04016400040500008e
:020000040000fa
:04016800040500008a
:020000040000fa
:04016c000405000086
:020000040000fa
:040170000405000082
:020000040000fa
:04017400040500007e
:020000040000fa
:04017800040500007a
:020000040000fa
:04017c000405000076
:020000040000fa
:040180000803000070
:020000040000fa
:04018400040500006e
:020000040000fa
:04018800040500006a
:020000040000fa
:04018c000405000066
:020000040000fa
:040190000405000062
:020000040000fa
:04019400040500005e
:020000040000fa
:04019800040500005a
:020000040000fa
:04019c000405000056
:020000040000fa
:0401a0000405000052
:020000040000fa
:0401a400040500004e
:020000040000fa
:0401a800040500004a
:020000040000fa
:0401ac000405000046
:020000040000fa
:0401b0000405000042
:020000040000fa
:0401b400040500003e
:020000040000fa
:0401b800040500003a
:020000040000fa
:0401bc000405000036
:020000040000fa
:0401c0000405000032
:020000040000fa
:0401c400040500002e
:020000040000fa
:0401c800040500002a
:020000040000fa
:0401cc000405000026
:020000040000fa
:0401d0000405000022
:020000040000fa
:0401d400040500001e
:020000040000fa
:0401d800040500001a
:020000040000fa
:0401dc000405000016
:020000040000fa
:0401e0000405000012
:020000040000fa
:0401e400040500000e
:020000040000fa
:0401e800040500000a
:020000040000fa
:0401ec000405000006
:020000040000fa
:0401f0000405000002
:020000040000fa
:0401f40004050000fe
:020000040000fa
:0401f80004050000fa
:020000040000fa
:0401fc0004050000f6
:020000040000fa
:0402080004050000e9
:020000040000fa
:04020c0004050000e5
:020000040000fa
:0402100004050000e1
:020000040000fa
:0402140004050000dd
:020000040000fa
:0402180004050000d9
:020000040000fa
:04021c0004050000d5
:020000040000fa
:0402200004050000d1
:020000040000fa
:0402240004050000cd
:020000040000fa
:0402280004050000c9
:020000040000fa
:04022c0004050000c5
:020000040000fa
:0402300004050000c1
:020000040000fa
:0402340004050000bd
:020000040000fa
:0402380004050000b9
:020000040000fa
:04023c0004050000b5
:020000040000fa
:0402400004050000b1
:020000040000fa
:0402440004050000ad
:020000040000fa
:0402480004050000a9
:020000040000fa
:04024c0004050000a5
:020000040000fa
:0402500004050000a1
:020000040000fa
:04025400040500009d
:020000040000fa
:040258000405000099
:020000040000fa
:04025c000405000095
:020000040000fa
:040260000405000091
:020000040000fa
:04026400040500008d
:020000040000fa
:040268000405000089
:020000040000fa
:04026c000405000085
:020000040000fa
:040270000405000081
:020000040000fa
:04027400040500007d
:020000040000fa
:040278000405000079
:020000040000fa
:04027c000405000075
:020000040000fa
:040280000405000071
:020000040000fa
:04028400040500006d
:020000040000fa
:040288000405000069
:020000040000fa
:04028c000405000065
:020000040000fa
:040290000405000061
:020000040000fa
:04029400040500005d
:020000040000fa
:040298000405000059
:020000040000fa
:04029c000405000055
:020000040000fa
:0402a0000405000051
:020000040000fa
:0402a400040500004d
:020000040000fa
:0402a8000405000049
:020000040000fa
:0402ac000405000045
:020000040000fa
:0402b0000405000041
:020000040000fa
:0402b400040500003d
:020000040000fa
:0402b8000405000039
:020000040000fa
:0402bc000405000035
:020000040000fa
:0402c0000405000031
:020000040000fa
:0402c400040500002d
:020000040000fa
:0402c8000405000029
:020000040000fa
:0402cc000405000025
:020000040000fa
:0402d0000405000021
:020000040000fa
:0402d400040500001d
:020000040000fa
:0402d8000405000019
:020000040000fa
:0402dc000405000015
:020000040000fa
:0402e0000405000011
:020000040000fa
:0402e400040500000d
:020000040000fa
:0402e8000405000009
:020000040000fa
:0402ec000405000005
:020000040000fa
:0402f0000405000001
:020000040000fa
:0402f40004050000fd
:020000040000fa
:0402f80004050000f9
:020000040000fa
:0402fc0004050000f5
:020000040000fa
:0403000004050000f0
:020000040000fa
:0403040004050000ec
:020000040000fa
:0403080004050000e8
:020000040000fa
:04030c0004050000e4
:020000040000fa
:0403100004050000e0
:020000040000fa
:0403140004050000dc
:020000040000fa
:0403180004050000d8
:020000040000fa
:04031c0004050000d4
:020000040000fa
:0403200004050000d0
:020000040000fa
:0403240004050000cc
:020000040000fa
:0403280004050000c8
:020000040000fa
:04032c0004050000c4
:020000040000fa
:0403300004050000c0
:020000040000fa
:0403340004050000bc
:020000040000fa
:0403380004050000b8
:020000040000fa
:04033c0004050000b4
:020000040000fa
:0403400004050000b0
:020000040000fa
:0403440004050000ac
:020000040000fa
:0403480004050000a8
:020000040000fa
:04034c0004050000a4
:020000040000fa
:0403500004050000a0
:020000040000fa
:04035400040500009c
:020000040000fa
:040358000405000098
:020000040000fa
:04035c000405000094
:020000040000fa
:040360000405000090
:020000040000fa
:04036400040500008c
:020000040000fa
:040368000405000088
:020000040000fa
:04036c000405000084
:020000040000fa
:040370000405000080
:020000040000fa
:04037400040500007c
:020000040000fa
:040378000405000078
:020000040000fa
:04037c000405000074
:020000040000fa
:040380000405000070
:020000040000fa
:04038400040500006c
:020000040000fa
:040388000405000068
:020000040000fa
:04038c000405000064
:020000040000fa
:040390000405000060
:020000040000fa
:04039400040500005c
:020000040000fa
:040398000405000058
:020000040000fa
:04039c000405000054
:020000040000fa
:0403a0000405000050
:020000040000fa
:0403a400040500004c
:020000040000fa
:0403a8000405000048
:020000040000fa
:0403ac000405000044
:020000040000fa
:0403b0000405000040
:020000040000fa
:0403b400040500003c
:020000040000fa
:0403b8000405000038
:020000040000fa
:0403bc000405000034
:020000040000fa
:0403c0000405000030
:020000040000fa
:0403c400040500002c
:020000040000fa
:0403c8000405000028
:020000040000fa
:0403cc000405000024
:020000040000fa
:0403d0000405000020
:020000040000fa
:0403d400040500001c
:020000040000fa
:0403d8000405000018
:020000040000fa
:0403dc000405000014
:020000040000fa
:0403e0000405000010
:020000040000fa
:0403e400040500000c
:020000040000fa
:0403e8000405000008
:020000040000fa
:0403ec000405000004
:020000040000fa
:0403f0000405000000
:020000040000fa
:0403f40004050000fc
:020000040000fa
:0403f80004050000f8
:020000040000fa
:0403fc0004050000f4
:020000040000fa
:100400000fc220000e7f22000e01880000000000b5
:10041000000020000000e000020032000001200087
:100420002002880014000700790107000000e000a6
:1004300003003a002078220001002000020037006b
:100440000000200001002000810f70000100320038
:1004500014000700000020000000e000020032004d
:10046000000002000000000062170200000000000f
:100470000040da000000fe004440a900602920008e
:100480000000e000030032000020200090018800fe
:100490004440a800000006008a1f78008b1f7800e7
:1004a00000000600a1028800800478000000eb0034
:1004b0001f003700e284440054a0b4009905ba003c
:1004c000e284440054a0b4009906ba00e2844400d7
:1004d00054a0b4000006eb00476fde00fd07b20039
:1004e000ae018800636ce10003003a00eaff0700f8
:1004f0000000eb000e003700606ce10008003a00dd
:10050000004deb000a05e800020039003420ec0041
:100510000af0a0008b05e900f9ff3e000400370057
:100520006168e100010032000086eb000b0007006b
:1005300019c7ba001905ba000e04e00003003a001a
:100540000a00e000dbff3a0000000600fe07b200f0
:10055000ae0288008a047800f5ff37000cd0a300b3
:10056000e20f4d001c00390089027800354dba00b9
:100570000a05e800020039003420ec000af0a0006f
:100580008b05e9000f003200254dba000a05e8008e
:10059000020039003420ec000af0a0008b05e900cd
:1005a000080032000c00e0000600320015cdba0051
:1005b0000a05e800020039003420ec000af0a0002f
:1005c0008b05e9008984e80054a0b4000b00e0002a
:1005d000e2ff3a00000006009902ba00055d7800cb
:1005e0008b05e900f7ff3200c82ade00055d7800c0
:1005f0008b05e900f3ff32000c00e000f1ff320050
:1006000019ddba00eeff3700000000000000000016
:100610003600f800809fbe00829fbe00849fbe000f
:10062000869fbe003200f8003400f8001000200061
:10063000a001880000202000900188000000fa003e
:10064000c80207000080fa003400f9003200f90007
:100650004f03be004f02be004f01be004f00be0060
:100660003600f900004006003200f8003400f800bf
:10067000881f780018002000a801880008202000aa
:10068000980188004f0478000000fa0094e0a90067
:100690009420a9008500a9009500a9000080fa0017
:1006a0003400f9003200f90000400600809fbe00cf
:1006b000829fbe003200f8003400f80010002000d5
:1006c000a001880000202000900188000800fa00a6
:1006d0000000eb00100798006000b80020079800a9
:1006e0003107980042c8bf000004e0000200320059
:1006f0004268ef004428ef0094e0a9008420a9009c
:100700008900370000c0eb00004f780071158000b1
:1007100011079800304280009e0090000080500039
:100720008000eb002007980031079800be00900081
:10073000800320000088b900000178002e0090009e
:100740006000b9000000780000014100ae00900098
:10075000800320000008b8000101410082007800f9
:10076000200798003107980020079800310798006b
:100770002e019000be019000f0572b0011002000c8
:10078000800f5100818f590003003e0000c0eb0034
:10079000004f7800580037002e019000be019000f5
:1007a000f0c7220031002000800f5100818f5900d6
:1007b00003003e000040eb00004f78004e00370081
:1007c0002e019000be019000f0372a004100200069
:1007d000800f5100818f590003003e0010c0b3000c
:1007e000004f7800440037002e019000be019000b9
:1007f000f0a7210061002000800f5100818f590077
:1008000003003e0020c0b300004f78003a003700dc
:100810002e019000be019000f01729007100200009
:10082000800f5100818f590003003e0030c0b3009b
:10083000004f7800300037002e019000be0190007c
:10084000f087200091002000800f5100818f590017
:1008500003003e0040c0b300004f78002600370080
:100860002e019000be019000f0f72700a1002000ab
:10087000800f5100818f590003003e0050c0b3002b
:10088000004f78001c0037002e019000be01900040
:10089000f0672f00b1002000800f5100818f5900b8
:1008a00003003e0060c0b300004f78001200370024
:1008b0002e019000be019000f0d72600d10020004c
:1008c000800f5100818f590003003e0070c0b300bb
:1008d000004f780008003700204280000000e00050
:1008e0000300320090c0b300004f780002003700d0
:1008f000a0c0b300004f7800424280004ac8bf0049
:100900008080fb00810041009e4878000040e800a4
:100910004ae8b700204280000000a2002042880080
:100920009e009000314288005015800068006000f1
:100930000000e00073ff3a000080fa003400f90084
:100940003200f9004f01be004f00be00004006001b
:10095000809fbe00821f78003200f8003400f8004b
:1009600010002000a00188000020200090018800d5
:100970000200fa00100480000000d1006140600015
:100980000004a200614060000080fb006100600084
:100990000000400012048000d1ff2f0081006100a0
:1009a0000100700010048800b00480004b00de00dd
:1009b00061406000004f78009760a9006022ef005e
:1009c0008760a9009e40780061c060000080fb0045
:1009d000610060004b00dd00b2048000f17f2f0059
:1009e0008100610001007000b00488008680a900c9
:1009f0000080fa003400f9003200f9004f0178005d
:100a00004f00be00004006000040da000000fe007b
:100a1000000005008001780002003700b15978001d
:100a20000201e9000200e000fcff3a0000000600bd
:100a30008001780002003700815978000201e90046
:0c0a40000200e000fcff3a00000006008d
:020000040000fa
:100a4c00290000000a3000000630000005300000cc
:100a5c0004300000073000000930000008300000ae
:100a6c002a000000350000001e0000001f000000de
:100a7c0020000000210000002200000023000000e4
:100a8c004b0000002b000000140000001a000000b6
:100a9c000800000015000000170000001c000000fa
:100aac00000000000d800000040000001600000093
:100abc0007000000090000000a0000000000000010
:100acc004e000000012000001d0000001b00000073
:100adc0006000000190000000500000000000000e6
:100aec00000000000c80000000200000032000002b
:100afc00022000002c00000000f0000000000000ac
:100b0c003e0000000e3000000630000005300000f2
:100b1c0004300000073000000930000008300000ed
:100b2c002400000025000000260000002700000023
:100b3c002d0000002e000000000000002a00000024
:100b4c001c000000180000000c0000001200000047
:100b5c00130000002f0000003000000031000000e6
:100b6c000b0000000d0000000e0000000f00000044
:100b7c0033000000340000000000000028000000da
:100b8c0011000000100000003600000037000000cb
:100b9c003800000005200000520000004c0000004e
:100bac0001f00000000000002c00000006200000f6
:100bbc000000000050000000510000004f00000039
:100bcc003d7400000a3000000630000005300000c3
:100bdc0004300000073000002b7300002b71000064
:100bec004c000000350000003a0000003b00000003
:100bfc003c0000003d0000003e0000003f000000f3
:100c0c004a000000280000004000000041000000e5
:100c1c00180000000c00000012000000130000007f
:100c2c000000000039000000690000000b0000000b
:100c3c000d0000000e0000000f000000000000007e
:100c4c004d000000012000005200000011000000c7
:100c5c00100000003600000037000000000000000b
:100c6c00000000000e800000500000005100000049
:100c7c004f0000006800000000f0000000000000c1
:100c8c003e0000000e300000063000000530000071
:100c9c00043000000730000009300000083000006c
:100cac004000000041000000420000004300000032
:100cbc004400000045000000000000002a00000075
:100ccc00140000001a0000000800000015000000cd
:100cdc00170000002f000000300000003100000061
:100cec0004000000160000000700000009000000ce
:100cfc000a00000034000000000000002800000082
:100d0c001d0000001b000000060000001900000080
:100d1c000500000005200000520000004900000002
:100d2c0001f000000000000065000000062000003b
:100d3c000000000050000000510000004f000000b7
:100d4c00120100000002000000000000000800007a
:100d5c00d804000056000000010000000102000051
:100d6c000001000009020000290000000101000040
:100d7c0000c0000032090000040000000002000066
:100d8c000300000000000000092100001101000018
:100d9c0000010000227e0000000700000581000019
:100dac0003100000000a000007050000010300000a
:100dbc00100000000a0000000403000009040000f9
:100dcc00340300004d0000006900000063000000c7
:100ddc00720000006f00000063000000680000005b
:100dec0069000000700000002000000054000000aa
:100dfc006500000063000000680000006e00000049
:100e0c006f0000006c0000006f0000006700000025
:100e1c007900000020000000490000006e00000076
:100e2c00630000002e0000001c0300004b000000bb
:100e3c006500000079000000620000006f000000f7
:100e4c00610000007200000064000000200000003f
:100e5c0044000000650000006d0000006f00000001
:100e6c00b8860000e2860000e68600001a870000c3
:100e7c000501000009060000a10100008501000029
:100e8c000507000019e0000029e70000150000002c
:100e9c00250100007501000095080000810200008a
:100eac009501000075080000810300009506000004
:100ebc00750100000508000009010000090200008e
:100ecc0009030000090600000907000009090000d9
:100edc0091020000950100007502000091030000d2
:100eec0095060000750800001500000025dd0000c7
:100efc00050700001900000029dd0000810000003a
:100f0c00c00500000c09000001a1000001850000d3
:100f1c00020500000c1500000025000001950000e2
:100f2c0001750000048100000375000001950000ac
:100f3c000a090000e9090000ea090000e2090000c2
:100f4c00cd090000b5090000b6090000b709000082
:100f5c00b8090000b3090000b4810000029500003c
:0c0f6c00017500000281000003c00000bd
:020000040000fa
:100f78000200fa009ec0a9008ac1a8000080eb0008
:100f8800702088000080eb00502088002a24ef00a1
:100f9800220020008000eb00c0422000a2fe0700d3
:100fa80020002000302188002824ef000644a900f2
:100fb800f009200080208800f009200060208800c7
:100fc80002c4a8000804a80000c020004800de00f1
:100fd800c02088000040eb00004f78000700370071
:100fe8001e80fb00c200dd0000c020000081400020
:100ff8006000b8000089be001e4fe8001e4078005f
:10100800e74f5000f6ff36001424a8001624ef001e
:1010180014a4a9001424a9008000200050208800ee
:1010280060a920008040eb0001487800c0a920009a
:101038008040eb0001487800e1548000f00f200068
:1010480000806000e0548800f154800000f02f0018
:1010580000806000f0548800502080006800600024
:101068000000e000ecff3a0010c0b3001be8b70036
:1010780010c0b3001ce8b7001d68ef001e68ef0041
:101088001568ef000040eb00004f780017003700ac
:101098001e80fb0080004000c080200000804000cf
:1010a8008000eb00010878001e80fb0080004000f3
:1010b80080802000008040008000eb00010878005c
:1010c8009e80fb0020aa2000008040008040eb00aa
:1010d800014878009e80fb0040aa20000080400064
:1010e8008040eb00014878001e4fe8001e40780061
:1010f800e14f5000e6ff360080c0200060408800c5
:10110800d00020005021880060aa200010608800cc
:1011180000c0200081c0b3000148780010c0200042
:1011280041c0b3000148780010c02000104078008a
:10113800804078000174a00010c0200001487800a9
:101148000268ef002028ef002228ef002468ef0053
:101158000028ef000080fa00000006000200fa00f4
:1011680000408000e10f50000b003a00a1208000f1
:1011780000042000008060000000e00006003a0043
:101188000080eb00502088000c04a8000c84a80004
:1011980020002000004088000020800070006000cf
:1011a8000000e0000700320010208000700060009e
:1011b8000000e00003003200000120000020880049
:1011c800bb04070040208000620060000000e000cf
:1011d800020032008ec0a900a30037005020800012
:1011e800610060000000e0000a003200602080001a
:1011f800610060000000e000060032005cff0700ac
:101208009ec0a80040002000004088001000200078
:101218005020880050208000700060000000e0002e
:101228000500320060208000700060000000e000cf
:101238000100320091040700012080000004200012
:10124800008060000000e00003003200000420007d
:1012580000208800f7060700502080006400600026
:101268000000e0001400320060208000640060008c
:101278000000e00004003200120020008000eb00b3
:10128800300720005c0f0700400020005020880035
:1012980019c8bf000004e0000300320019c8bf00ed
:1012a8000040e90019e8b70019c8bf000004e000d1
:1012b80001003a00a5010700512080000008200025
:1012c800008060000000e00006003200612080001d
:1012d80000082000008060000000e00001003200eb
:1012e8004a04070050208000620060000000e0000f
:1012f8000c00320060208000620060000000e00006
:1013080008003200120020008000eb00f0ff2700e8
:10131800390f07000080eb007020880020002000b3
:101328005020880000408000e30f500002003e007b
:101338008ec0a9004c003700602080006800600063
:101348000000e000470032000040eb00004f78004a
:101358003f00370050208000680060000000e00077
:101368003f003200902080000040780016e8b70067
:1013780016c8bf000080fb004400de000040780073
:1013880017e8b700800020005020880016c8bf006a
:10139800684060000004e00012003a0017c8bf006f
:1013a8000081fb008080fb0040aa200000804000f4
:1013b8009040780061c060000004a200e140600035
:1013c80040aa200000004100e1c060009041780080
:1013d800e2cfb30002c1610081407100014878008a
:1013e8001100370017c8bf000081fb008080fb0098
:1013f80020aa2000008040009040780061c0600072
:101408000004a200e140600020aa20000000410082
:10141800e1c0600090417800e2cfb30002c16100f2
:10142800814071000148780017c8bf000004e0003f
:1014380002003a002a040700040037000001eb000c
:101448006181200020072000eb0e07001e4fe800f6
:101458001e407800e34f5000beff36000100370001
:10146800000000008ec0a9000080fa0000000600fd
:101478000400fa0020479800314798003e40900049
:101488000080fb00680060000000e00003003200fc
:101498008040eb002e4090009b0107003e409000ea
:1014a8000080fb00640060000000e00003003200e0
:1014b80011c0b3002e40900093010700a142200004
:1014c8002e4090000080fb0000004000008f40008c
:1014d8001e007800be409000014878000080fa00a5
:1014e800000006000800fa002047980031479800dd
:1014f80022079800634798003e4090000004e000ef
:10150800070032002e4090000080fb008000400061
:10151800c080200000804000100f780006003700cf
:101528002e4090000080fb0080004000808020005a
:1015380000804000100f78001e0078000000e000d6
:1015480002003a000000eb0037003700ae009000c0
:101558001e007800110098001e007800ee409000f0
:10156800014878001e0078001040900002c4b300c3
:10157800824060001e007800114098001e0078002c
:1015880010409000804078000134a0001e007800d0
:10159800114098001e0078001040900080407800ac
:1015a8000174a0001e007800114098003e40900091
:1015b8000004e0000e0032002e4090000080fb0086
:1015c800ae4090008180fb0001814000c180200076
:1015d80081004100910078000120a2000001400034
:1015e800c080200000004100010878000d0037008d
:1015f8002e4090000080fb00ae4090008180fb00f0
:101608000181400081802000810041009100780024
:101618000120a2000001400080802000000041005d
:10162800010878001e0078000080fa00000006001b
:101638000400fa0020479800314798002e40900097
:101648000004e00017003a003040800081c0b30079
:10165800014878003040800061aa200011009800fd
:1016680030408000c1c0b300114098003040800075
:1016780031408000914090000174a0001140980012
:101688006040800041c0b300114098006040800075
:1016980061408000914090000174a00011409800c2
:1016a8002e0037002e4090000080fb000000400014
:1016b800800078003e4090000080fb0000804000e1
:1016c8004300dd008000780000c02000008f40004b
:1016d8001e00780010409000804078000124a0008f
:1016e8001e007800114098001e00780010409000fd
:1016f800804078000174a0001e0078001140980016
:101708002e4090000080fb00000040008000780020
:101718003e4090000080fb00008040004300dd0058
:10172800e400400000c02000008f40001e00780048
:1017380010409000804078000124a0001e0078002e
:10174800114098001e0078001040900080407800fa
:101758000174a0001e007800114098000080fa0073
:10176800000006000200fa00004f7800a120800067
:1017780000022000008060000000e00051003200fc
:101788001e80fb0080004000c080200000804000d8
:10179800100278001e80fb0080004000c0802000fe
:1017a80000804000100078001001be0000042000f6
:1017b800010020008202780003017800800178008f
:1017c8000100780083826200000061008000eb0065
:1017d800c000dd00000020000001be006128b80044
:1017e8000001710081817100028abe001e80fb0029
:1017f80080004000c0802000008040001002780077
:101808001e80fb0080004000c08020000080400057
:10181800100078001001be00000420000100200024
:101828000000690081806900008abe001e80fb00fc
:101838009e80fb0001814000c180200081004100a2
:10184800910078000120a20000014000c080200023
:1018580000004100010878001e80fb008000400065
:10186800c080200000804000900078001e80fb00af
:1018780000014000c08020000000410010007800f6
:10188800104090000044b200904098001e80fb0079
:1018980080004000c0802000008040009000780058
:1018a8001e80fb0000014000c080200000004100b5
:1018b800100078001041900000c4b3000040690097
:1018c800904098000080fa00000006000000fa002e
:1018d8001424ef000c24ef000028ef000080fa0029
:1018e800000006000000fa00004080000000e00050
:1018f80014003a001424ef000c24ef00200020000c
:10190800302188002824ef000644a900f0092000af
:1019180080208800f00920006020880002c4a80008
:101928009ec0a800010037001404a800a020800071
:10193800610060000000e000fbff320010002000a2
:10194800004088000080fa00000006000000fa004d
:101958001bc8bf000004a2000004e00034003200ed
:1019680010c0b3001be8b7001cc8bf000004a200e9
:101978000004e0002e00320010c0b3001ce8b700dd
:1019880011c8bf00e24f50000c003a0060408000d0
:101998008040eb00014878006040800081c4b300bb
:1019a80011409800604080006140800091409000a4
:1019b8000174a000114098001d00370011c8bf0035
:1019c800e14f50001a003a001868ef0020408000ec
:1019d80081c0b300014878002040800061aa20003f
:1019e800110098002040800041c0b30011409800c9
:1019f8002040800021408000914090000174a000a8
:101a08001140980010c0b30018e8b70030408000bb
:101a180081c0b300014878003040800061aa2000ee
:101a2800110098003040800001c8b30011409800b0
:101a38000080fa00000006000000fa001d68ef00b0
:101a48001e68ef0011c8bf00e24f50000f003a00b7
:101a58003040800081c0b3000148780030408000e9
:101a6800e1aa2000110098003040800081c4b30032
:101a78001140980030408000314080009140900033
:101a88000174a000114098001d003700c0aa200072
:101a98001080fb00d1aa20009180fb00c808dd005f
:101aa8000100700080007800c0548000808f5000d2
:101ab80007003100c0aa20001080fb00d1aa200036
:101ac8009180fb00c808dd0001007000c054880048
:101ad8009800070060408000e1aa200011009800eb
:101ae8006040800081c4b3001140980060408000cd
:101af80061408000914090000174a000114098005e
:101b08000080fa00000006000400fa002047980050
:101b18003147980000c02000000f78002e40900048
:101b28000080fb0000004000800078003e409000ec
:101b38000080fb00008040004300dd001e0f4000d5
:101b48001e00780010017800f1ff27008100610075
:101b5800010878003e4090000004e00007003a00c9
:101b68002e4090000080fb00800040008080200014
:101b7800008040001e087800060037002e409000c4
:101b88000080fb0080004000c080200000804000f2
:101b98001e0878001e00780010017800f1ff2b0065
:101ba80081006100010878009e0078006480400090
:101bb8009000780001e0a000010878000080fa0099
:101bc800000006000000fa0014a4a900b154800027
:101bd80000082000008060000000e00027003a00b4
:101be800c0a920009040780000c8b30000c0600081
:101bf8000004e0000a00320020c0b30011e8b7007a
:101c08001ec8bf000004a2000004e000010032006a
:101c180089ff07001c68ef001b68ef0043003700ce
:101c28003040800081c0b300014878003040800017
:101c380061aa20001100980030408000c1c0b300a4
:101c48001140980030408000314080009140900061
:101c58000174a000114098006040800041c0b300aa
:101c680011409800604080006140800091409000e1
:101c78000174a000114098002c00370060aa2000d1
:101c88009040780000c8b30000c060000004e00085
:101c98000f00320010c0b30011e8b7001dc8bf0024
:101ca8000004a2000004e0000100320062ff070007
:101cb8001c68ef001b68ef001ac8bf000004a200f0
:101cc8000004e0001900320020ff07001700370069
:101cd80020c0b30011e8b7003040800081c0b300d5
:101ce800014878003040800061aa20001100980067
:101cf8003040800041c0b30011409800304080005f
:101d080031408000914090000174a000114098007b
:101d18001c68ef001b68ef001ac8bf000004a2008f
:101d28000004e0000100320008ff07000080fa000c
:101d3800000006000200fa0080c0b300004f7800df
:101d4800c0548000e70f50000d003e00c0548000d2
:101d5800004f780010c8bf000004e00003003a00fc
:101d680010c0b30010e8b7000500370010c8bf0066
:101d7800e14f500002003a0020c0b30010e8b7005d
:101d8800c15480001e80fb0000805000c0548800b1
:101d9800604080001e487800e0aa2000904088003b
:101da800b0548000610060000000e00017003a00b5
:101db8000900370091408000a0548000104178004d
:101dc800824878008100e800914088000000e8001f
:101dd800a05488001e4fe9001e4078000004e0006f
:101de800f4ff3a000c00370091408000a0548000b6
:101df80010417800824878008100e800914088000e
:101e08000000e800a05488001e4fe9001e4078003a
:101e18000004e000f4ff3a000080fa000000060029
:101e28000200fa0020408000104f78009e80fb00de
:101e3800e05480004800de00f3548000f20f2000d8
:101e4800028161004811dd0002007000808f50009f
:101e580008003600e05480004800de00f25480009c
:101e6800f10f200081006100c808dd00010070004a
:101e7800004f7800e05480004800de00f2548000f3
:101e8800f10f200081006100c808dd00010070002a
:101e9800800078001e80fb0000805000f10f2000b9
:101ea80081006000c808dd00e3548000f20f2000c4
:101eb8000281610082807000e1548800c800de0061
:101ec800f00f200000806000f254800001f02f0025
:101ed8008100610001007000f05488000040eb00b0
:101ee800104798000c003700d05480009e409000a6
:101ef8000181fb00e1aa20008100410091407800a7
:101f0800014878000000e800d05488001e40900086
:101f18000040e800104798001e4090009e4f500077
:101f2800f1ff3900e05480004800de00f2548000e0
:101f3800f10f200081006100c808dd000100700079
:101f48000000e0001e0032003040800081c0b30075
:101f58000148780030408000e1aa20001100980074
:101f6800204080009000780000002400008060007d
:101f78000000e00009003a003040800081c4b3004e
:101f8800114098003040800031408000914090001e
:101f98000174a000114098003100370030408000e3
:101fa80081c0b3001140980030408000314080006b
:101fb800914090000174a00011409800280037005b
:101fc8003040800081c0b300014878003040800074
:101fd80061aa2000110098003040800041c0b30081
:101fe80011409800304080003140800091409000be
:101ff8000174a00011409800f05480004800de00f1
:1020080002558000f10f200081006100c808dd0042
:10201800010070000000e00008003200f054800069
:102028004800de0002558000f10f200081006100a9
:10203800c808dd000100700000000100e1548000c4
:10204800f0f72f0000806000e05488001ac8bf0035
:102058000004a2000004e000010032003bfe07007b
:102068000080fa00000006000200fa00b054800068
:102078000070a000b0548800220020008000eb000f
:10208800c042200068fa0700020220008000eb002e
:1020980000c0200064fa07001424a8000040eb00e8
:1020a800004f78000b0037009e80fb0020aa20001c
:1020b800008040008040eb00014878009e80fb00d3
:1020c80040aa2000008040008040eb0001487800d2
:1020d8001e4fe8001e407800e14f5000f2ff360026
:1020e800120020008000eb00308020004efa07002c
:1020f8001424a90080c020006040880000c020008f
:1021080020408800204080003040880080aa2000bd
:102118001040780002e8b70002c8bf000004e000e1
:1021280003003a0000012000004088000600370044
:10213800120020002180200010002000ae0b0700b4
:1021480000022000004088000080fa00000006001d
:102158000000fa0060aa20009040780000c8b30090
:1021680080cf500047003a0060a9200001ccb3009e
:102178000148780090aa2000104078000080fb00f9
:10218800e20f500009003200e30f50002300320034
:10219800e10f500037003a00606a2800a054880018
:1021a80020012000c05488003600370080aa200093
:1021b800104078000004e00014003a0080aa2000d3
:1021c800104078000080fb0000004000800078008c
:1021d800607328000080400010007800a054880038
:1021e800a05480000080e8009040780080a920007a
:1021f80001487800a05480006300400090407800b7
:1022080090a92000014878001e00370060a920002e
:102218008040eb00014878001a00370080aa2000af
:1022280010407800e24f50000e003e0080aa2000c7
:10223800104078000080fb0000004000800078001b
:10224800807328000080400010007800a0548800a7
:10225800a0548000104078000080fb00c054880023
:102268000800370060a920008040eb000148780092
:102278000400370060a920008040eb000148780086
:10228800000000000080fa00000006000200fa00ca
:10229800e0aa20008040eb0001487800f0aa200066
:1022a8008040eb000148780060aa20009040780048
:1022b8007fc060000080fb00e10f50001100320079
:1022c800e20f5000130032000000e00040003a0026
:1022d800b05480000070a000b054880014c8bf003b
:1022e8000004e00035003200e0aa20001040780029
:1022f800804078000114a000e0aa2000014878007e
:1023080033003700b05480000070a000b05488003b
:102318002f003700b05480000070a000b05488002f
:10232800a0aa20009040780000c8b30000c0600058
:102338000004e00009003a00a0aa200090407800bc
:102348006fc060000080fb0080004000808020009b
:1023580000804000100f780008003700a0aa200075
:10236800904078006fc060000080fb008000400053
:10237800c080200000804000100f78001e00780008
:102388009000780000002800008060000000e00055
:102398000c0032001e0078009000780000402000f9
:1023a800008060000000e00008003200e0aa200081
:1023b80011c0b30001487800050037000000000094
:1023c8000300370000000000010037000000000093
:1023d800b154800000082000008060000000e00088
:1023e80008003200e0aa2000a0548800b054800001
:1023f8000000a000b054880080a9200021c0b300cc
:10240800014878000080fa00000006000000fa0089
:1024180050218000620060000000e00013003200dc
:10242800204080009040900000c8b30080cf50004a
:102438000d003a00604080009040900040c8b30012
:1024480080cf500008003a0020408000c1c0b3008f
:102458001140980020408000214080009140900069
:102468000174a000114098002a24a9000008200047
:10247800502088000080fa00000006000000fa00e2
:102488000284a800000120005020880010c0b3007a
:1024980015e8b7002468ef000001eb008000eb00ae
:1024a80050072000d40a07000080fa000000060048
:1024b8000000fa001568ef000001eb008000eb0057
:1024c80040072000cc0a07000284a9000001200070
:1024d800002088002468ef000080fa000000060051
:1024e8000000fa00d0c2b30019e8b70016c8bf0050
:1024f8008080fb00b0ff2f00008060000000e0003b
:102508001f003a0016c8bf000080fb004200de0032
:10251800004078000080fb00c200dd0000c0200001
:102528000080400020408800204080003040880023
:10253800304080000020a200304088002040800009
:102548009000780000c023008080600000402300d5
:10255800808f500008003a00204080001000900052
:10256800820020008000780060aa200027f9070078
:102578000c000700090037003e000700070037007d
:1025880016c8bf008080fb00b0ff2f0000806000ed
:10259800e80f500001003a00530007000080fa00dd
:1025a800000006000000fa001068ef001a68ef004b
:1025b8001d68ef001e68ef001868ef001168ef0053
:1025c8006040800061408000914090000174a1004b
:1025d80011409800604080000020a2006040880000
:1025e8006040800061408000914090000174a1002b
:1025f80011409800604080000020a20060408800e0
:102608003040800031408000914090000174a1006a
:102618001140980060a920008040eb000148780034
:102628000000eb00c0548800c0a920008040eb00e7
:1026380001487800e1548000f00f2000008060001d
:10264800e0548800f154800000f02f000080600002
:10265800f0548800840007000001eb008000eb00c4
:1026680030002000640a070056fd07000080fa00c9
:10267800000006000000fa0011c8bf00e24f500039
:1026880002003a00e6fd0700150037001168ef0068
:1026980018c8bf000004a2000004e0000f003200c8
:1026a8003040800081c0b30001487800304080008d
:1026b80061aa20001100980030408000c1c0b3001a
:1026c80011409800304080003140800091409000d7
:1026d8000174a00011409800010037001868ef004d
:1026e8000080fa00000006000200fa006040800046
:1026f800100078004e00de0061406000004f780056
:10270800604080000020a2006040880000408000f7
:10271800e80f50000e003a0080aa20001040780010
:102728008080fb00f007200000806000b020880057
:10273800b02080000000e00003003200000120000b
:102748000040880002003700400020000040880058
:1027580011c8bf00e14f500025003a0060408000da
:10276800e1aa20001100980072fd070010c8bf0000
:10277800e24f500009003a006040800041c0b300b9
:1027880011409800604080006140800091409000b6
:102798000174a00011409800310037001e407800f5
:1027a8000004e00009003a006040800081c4b300e2
:1027b8001140980060408000614080009140900086
:1027c8000174a00011409800250037006040800087
:1027d80081c0b300114098006040800061408000d3
:1027e800914090000174a000114098001c0037002f
:1027f800c0a920009040780000c8b30000c0600065
:102808000004e00015003200f05480004800de00ab
:1028180002558000f10f200081006100c808dd002a
:10282800010070000000e00008003200f054800051
:102838004800de0002558000f10f20008100610091
:10284800c808dd000100700000000100e1548000ac
:10285800f0f72f0000806000e05488001168ef0056
:102868000080fa00000006000000fa0060aa2000bc
:10287800104078000046b2000004e00051003a0021
:1028880070aa2000104078000080fb00cf80de0096
:10289800b200200003002000820f5000838f5800f0
:1028a8004a003e0000600100210037002200370086
:1028b8004800370020003700460037000600370080
:1028c8000b0037003a0037000d0037000a003700c8
:1028d8001b0037002a003700b05480000070a000a9
:1028e800b054880080002000004088003a0037007b
:1028f80017fe070038003700dbfd070036003700f9
:1029080020802000a0548800b05480000000a0005f
:10291800b054880080a9200011c0b3000148780095
:10292800b05480000070a000b05488002a0037001e
:1029380056fe070028003700290007002600370048
:10294800a0aa2000104078008080fb003080200082
:1029580000804000a0548800b05480000000a0000f
:10296800b054880080a9200011c0b3000148780045
:10297800b05480000070a000b054880016003700e2
:10298800b05480000070a000b0548800a0aa2000b5
:10299800104078000081fb0080aa20009040780059
:1029a8003080200000004100014878000a0037000c
:1029b8000001eb008000eb00200020008e090700da
:1029c8000500370000000000030037000000000089
:1029d80001003700000000000080fa000000060037
:1029e8000600fa0080aa200010407800e14f50004d
:1029f80010003a0060aa2000104078007f40600074
:102a08000004e0000b003a00b05480000070a00001
:102a1800b054880070aa200010407800e34f50009e
:102a280003003a0010c0b30014e8b70001003700f3
:102a38001468ef0080aa2000104078000004e0002d
:102a4800fa003a0060aa2000104078007f40600039
:102a5800e24f5000f5003a00a0aa2000104078008c
:102a68006f4060000004e000f0003200a0aa2000df
:102a7800904078006fc060000080fb00e10f5000bc
:102a8800ea003c000140800000022000808f5000d6
:102a9800e6003a00b05480000070a000b0548800ee
:102aa800a0aa20009040780000c8b30000c06000d1
:102ab8000004e00011003a00a0aa200010417800ac
:102ac8006f4061000080fb00800040008080200093
:102ad80000804000100f7800a0aa200090407800e5
:102ae8006fc060008080fb0040aa2000008040008a
:102af800104078004047980010003700a0aa200036
:102b0800104178006f4061000080fb0080004000a9
:102b1800c080200000804000100f7800a0aa20008c
:102b2800904078006fc060008080fb0020aa2000e1
:102b38000080400010407800404798004e409000c8
:102b4800614060000004e00005003a009e00780043
:102b5800b0ff2f0000806000000f780003003700ee
:102b68001e0078000020a000000f7800a0aa200016
:102b78009040780000c8b30000c060000004e00086
:102b88000a003a00a0aa2000104178006f406100b6
:102b98000080fb009e00780000014000808020003b
:102ba800000041000108780009003700a0aa2000b1
:102bb800904078006fc060000080fb009e007800a5
:102bc80000014000c080200000004100010878009a
:102bd80070aa200010407800e34f50002c003a0003
:102be8001e00780090007800000028000080600037
:102bf8000000e00019003200a0aa200090407800f0
:102c080000c8b30000c060000004e0000a003a00f9
:102c1800a0aa2000104178006f4061008080fb006e
:102c280040aa200000804000904078000114a000d5
:102c38000148780009003700a0aa200090407800d9
:102c48006fc060008080fb0020aa20000080400048
:102c5800904078000114a000014878001e00780018
:102c680010409000804078000124a0001e007800e9
:102c7800114098001e0078001040900080407800b5
:102c88000174a0001e00780011409800670037000a
:102c98001e0078000020a200000f78001e007800b7
:102ca8009000780000002800008060000000e0002c
:102cb800110032001e00780010409000804078001b
:102cc8000174a1001e007800114098001e007800d1
:102cd80010409000804078000164a0001e00780039
:102ce80011409800220020009e007800500020002b
:102cf800c1080700060037001e0078001040900049
:102d0800804078000164a0001e00780011409800ff
:102d18001e0078000020a200000f78004e409000ae
:102d2800624060000004e00006003a001e007800df
:102d38009000780000002800008060000000e0009b
:102d480026003200a0aa20009040780000c8b300f6
:102d580000c060000004e0000b003a00a0aa2000b8
:102d6800104178006f4061008080fb0040aa20007d
:102d78000080400010417800d1cfb300814061004d
:102d8800014878000a003700a0aa20009040780087
:102d98006fc060008080fb0020aa200000804000f7
:102da80010417800d1cfb30081406100014878001c
:102db8001e00780010409000b2c3b300824060004b
:102dc8001e00780011409800220020009e00780024
:102dd8005000200088080700060037001e00780011
:102de80010409000b2c3b300824060001e0078001b
:102df80011409800a1422000a0aa200010417800ac
:102e08006f4061000080fb0000004000008040002f
:102e1800100798001e00900090407800d0cfb300b3
:102e280080c060001e009000014878000080fa0011
:102e3800000006000000fa000041800011418000f7
:102e480061004000e080480000418800114188008e
:102e580015c8bf000004a2000004e000080032000a
:102e680024c8bf000040e80024e8b70024c8bf0019
:102e78000004e00002003a0000c0eb0024e8b700bc
:102e88000080fa00000006000400fa0002418000f9
:102e980013418000028fbe00004180001141800074
:102ea8001e01be00800f5100818f5900f7ff3a00c4
:102eb8001e00be000080fa00000006000000fa00b4
:102ec800cf02070041c8bf000080fb000000e900f6
:102ed8004f00de000040780041e8b70041c8bf005d
:102ee800614060000080fb00610060004300dd007d
:102ef800720c800071ff2f008100610001007000da
:102f0800700c880041c8bf000004e00002003200d5
:102f180020c0b3000100370030c0b3000041eb000f
:102f28008000eb00f6010700c201070069070700ef
:102f3800e4ff37000200fa00d3ff070080007800a2
:102f4800e041800080805000e0152000808f500014
:102f58000e0036004185200091407800014f78002e
:102f6800070037001e80fb006600b90000007800eb
:102f78008080e80080a5200000804000104f780085
:102f88001e407800e14f4000f6ff3a00beff070000
:102f980080007800f041800080805000e01520001b
:102fa800808f50001c003600418520009140780039
:102fb80011479800150037001e4090000080fb0064
:102fc8006600b9008000780080a5200000804000dd
:102fd80090407800f0c2b30080cf50000200360065
:102fe8001e409000430307001e4090000080fb0035
:102ff8006600b900000078008080e80080a5200005
:103008000080400090407800114798001e409000d2
:10301800e14f4000e8ff3a000080fa000000060097
:103028000c00fa00881f78007a0137008fa1a900e8
:10303800808420008c070700304f98003e4890009d
:10304800e74f50002b003e0040c8bf000004e000de
:103058007001320040c8bf000080fb0061006000c2
:10306800004078000004e0001300320040c8bf00b0
:103078000080fb000000d100004078000081fb00c8
:1030880040c8bf000080fb000000d100004078006d
:103098008080fb0040ad2000008040009040780018
:1030a8003e48900080c0700040ad20000000410004
:1030b800014878000b00370040c8bf000080fb00c3
:1030c8000000d100004078000081fb00be4890005d
:1030d800300020008008dd0040ad200000004100e5
:1030e8000148780040c8bf000040e80040e8b70049
:1030f800480137003e489000e94f500013003a005d
:103108008fe1a8000040eb00004f78000600370070
:103118009e80fb0040ad20000080400080c0eb0096
:10312800014878001e4fe8001e407800e54f500027
:10313800f7ff360010c0b30040e8b70040ad2000ec
:103148008040eb0001487800320137003e4890008b
:10315800ea4f50002b013a008fe1a90040c8bf0098
:103168000080fb0061006000004078000004e0007f
:103178001f01320040c8bf000080fb000000d100e2
:10318800004078008080fb0040ad200000804000b7
:10319800104078000080fb004300de000044780007
:1031a80040c8bf000080fb000000d100004078004c
:1031b8008040e90040ad20001040780001417800cf
:1031c80051ad200039080700804f5400ec003a0048
:1031d8008fa1a90040ad2000104078000080fb00be
:1031e800e40f500003003200e50f50007300320076
:1031f800ff0037002000200078050700100020009d
:103208005d0507000040eb001047980009003700f3
:103218001e4090008080fb0040ae200000804000ef
:1032280080c0eb00014878001e4090000040e80094
:10323800104798001e409000e54f5000f4ff3600fc
:103248000040eb0020479800140037002e40900003
:103258000080fb00ae4090008180fb000101e80087
:1032680041ad20008100410091407800f2c2b300d6
:103278000141510041ae20008100400082487800a1
:1032880041ae2000010040001040780066030700ae
:103298002e4090000040e800204798002e40900003
:1032a8008080fb0040c8bf000080fb006300500026
:1032b8000080d100808f5000e4ff35004185200058
:1032c8009140780031479800340037003e40900024
:1032d8000080fb006600b9008000780080a520000f
:1032e8000080400090407800f0c2b30080cf5000ca
:1032f80021003e000040eb00404798000040eb00f2
:1033080050479800140037005e4090008080fb0012
:1033180040ae200000804000104178003e40900000
:103328000080fb006600b9008000780080a52000be
:103338000080400010407800804f510003003a00a0
:1033480010c0b30040479800060037005e40900068
:103358000040e800504798005e409000e44f50005d
:10336800e9ff36004e4090000004e00002003a00f9
:103378003e4090005f0207003e4090000080fb0046
:103388006600b900000078008080e80080a5200071
:103398000080400090407800314798003e409000ff
:1033a800e14f4000c9ff3a00b7fe0700000078006f
:1033b800e0418800000000008d0037003000200048
:1033c8000605070040002000eb0407000040eb0062
:1033d80060479800090037006e4090008080fb002d
:1033e800a0ae20000080400080c0eb0001487800bb
:1033f8006e4090000040e800604798006e409000e2
:10340800e54f5000f4ff36000040eb00704798008d
:10341800140037007e4090000080fb00fe409000c2
:103428008180fb000101e80041ad200081004100de
:1034380091407800f2c5b30001415100a1ae2000cf
:103448008100400082487800a1ae200001004000c1
:1034580010407800f40207007e4090000040e80029
:10346800704798007e4090008080fb0040c8bf00f5
:103478000080fb00630050000080d100808f500066
:10348800e4ff35004185200091407800014f980005
:10349800340037000e4890000080fb006600b90039
:1034a8008000780080a520000080400090407800cf
:1034b800f0c2b30080cf5000210036000040eb007e
:1034c800104f98000040eb00204f98001400370080
:1034d8002e4890008080fb00a0ae200000804000b5
:1034e800104178000e4890000080fb006600b9008b
:1034f8008000780080a520000080400010407800ff
:10350800804f510003003a0010c0b300104f9800dc
:10351800060037002e4890000040e800204f980031
:103528002e489000e44f5000e9ff36001e489000f6
:103538000004e00002003a000e489000ed01070088
:103548000e4890000080fb006600b900000078007b
:103558008080e80080a5200000804000904078002e
:10356800014f98000e489000e14f4000c9ff3a0013
:1035780045fe070000007800f04188001c00370075
:103588008fa1a80040ad2000104078000080fb000b
:10359800e40f500003003200e50f5000060032002f
:1035a8000a003700100020008c04070040002000ab
:1035b8008a0407000e003700200020006e04070070
:1035c800300020006c0407000900370010002000bc
:1035d800820407004000200080040700200020002b
:1035e80065040700300020006304070000000000a5
:1035f8004068ef0040ad200080c0eb000148780033
:10360800040037004068ef0040ad200080c0eb00a8
:1036180001487800b1842000914078004ac8bf0072
:1036280080cf500081fe3a004f0478000080fa00f5
:10363800000006000200fa00004f780010c0b30036
:1036480042e8b70080842000160607005115800064
:1036580080ff2f0000806000501588005115800001
:1036680080ff2f00008060000000a0005015880037
:103678008420a9009420a8006022ef008760a90098
:103688000e00370066fe0700920507002012800032
:10369800004078007f4060000040e8007f40600004
:1036a8000080fb007f0060002212800001fe2f00d6
:1036b8008100610001007000201288003104800040
:1036c80000802000008060000000e000edff320074
:1036d8009420a900424280004ac8bf008080fb00b5
:1036e80081004100a2c0b300824878000040e80091
:1036f8004ae8b7004afe07000080fa00000006000a
:103708002c00fa00889fbe00606798004117980057
:10371800226f98006e6090000080fb0067006000d8
:103728006600b90000007800a004b00010079800f7
:103738000040eb00004f7800310037001e80fb008e
:10374800000040000001e8001e80fb00000040006f
:103758000000400000004700900190001e80fb0020
:10376800ce10900000804000104078000080fb00e0
:103778004300de00004078000080fb006600b900ce
:103788000000780000804100ea004000020041008b
:10379800000047000080e800010878001e80fb0058
:1037a8000000e80000004000000178001e80fb00d7
:1037b800000040000000e800000040000000470052
:1037c800900190001e80fb00ce1090000080400009
:1037d800104078000080fb00670060006600b900b8
:1037e8000000780000804100ea004000020041002b
:1037f800000047000080e800010878001e4fe8003c
:103808002e6890009e40780080cf5000cbff390092
:103818002e6890000080fb00000040000004e800d3
:103828002e6890000080fb0000004000000040006f
:1038380000004700900490002e699000ce10900080
:103848006e609000990607000080fb006600b900d2
:103858000000780000804400ea00400008004400ae
:10386800000047000080e800010878002e689000fa
:103878000080fb000000e80000004000ae689000f7
:103888008180fb00818040008100e8008180400049
:1038980081004700910090006104b00000004000e2
:1038a800000047000080e800010878009480a90023
:1038b80000002800802288005424ef000080eb00dc
:1038c800b022880000042000c02288001060230075
:1038d800d02288000e80e800e0228800e02720003f
:1038e800f02288002e6890000080fb000000400055
:1038f8006300400000238800c113800080ff2f0070
:1039080000806000c0138800fac2a8008480a90063
:10391800d122800000f0230000806000d0228800bf
:103928005804a80000042000f01388008022ef004b
:10393800c113800080ff2f00008060003000b300ba
:10394800c01388000d003700e20407002012800031
:10395800004078007f4060000040e8007f40600041
:103968000080fb007f0060002212800001fe2f0013
:10397800810061000100700020128800200480008e
:10398800700060000000e000efff320084c0a90072
:10399800fac2a9000d003700ce04070020128000eb
:1039a800004078007f4060000040e8007f406000f1
:1039b8000080fb007f0060002212800001fe2f00c3
:1039c800810061000100700020128800210480003d
:1039d80000042000008060000000e000eeff3200dc
:1039e8005804a9009480a9005aa4a9009500a80029
:1039f8006e6090004f04be000080fa0000000600d0
:103a08000000fa0081e0a900818520008084200060
:103a18002c0507008fe1a800510c800030ff210021
:103a280000806000500c88000000290030088800e1
:103a380011088000f08f2f000080600010088800b7
:103a48008821ef009221ef00611c8000f00f2c000c
:103a58000080600000a0a000601c8800d11c8000cd
:103a680000fc2f00008060000020a000d01c88000f
:103a7800b022ef0010c0210050158800ac22ef00e2
:103a88000100370070158000501580006800600044
:103a98000000e000fbff3a0060c0210070138800be
:103aa800f001200080138800e011200090138800a6
:103ab80091138000901380004200de0000805000c7
:103ac800a0138800403a2000d01288002010280057
:103ad800f012880030402000c0138800f001210057
:103ae800d01388000080eb00e0138800200020003d
:103af800f013880000022800d017880090002000ea
:103b0800e017880000482400f0178800fac2a800cf
:103b18008fe1a800510c800030ff21000080600078
:103b2800500c8800c11e800000fc2f00008060003f
:103b3800b001b300c01e8800000c200020128800cd
:103b4800211f8000f00f2c008080600000d0200032
:103b580001007000201f8800700580007000b3000d
:103b68007005880081058000f0ff28000080600053
:103b780000c0a00080058800400580007000b300e8
:103b8800400588003105800080ff2f00008060001c
:103b98006000b3003005880031058000f08f2f00e9
:103ba800808060000050200001007000300588000f
:103bb80021058000f0f82f008080600000032000bd
:103bc800010070002005880071068000f08f2f002a
:103bd800008060000090a000700688008680a90020
:103be8009680a80000fa2000301388000001280001
:103bf800501388008420a9009420a9008500a900fa
:103c08009500a9008760a9009760a9006e20a80008
:103c1800200020008703070010002000850307000c
:103c280030002000830307004000200081030700c4
:103c38000080fa00000006000200fa000040eb00d5
:103c4800004f78000f0037001e80fb006600b900a7
:103c58008000780080a520000080400080c0eb0034
:103c6800014878001e80fb006600b90080007800db
:103c7800c0a52000008040008000eb00010878000b
:103c88001e4fe8001e407800e94f5000eeff360056
:103c980030ac200090407800e0c060000148780017
:103ca80040ac200090407800e0c0600001487800f7
:103cb8000040eb0010479800090037001e409000b4
:103cc8000080fb0071ab2000008040008040eb00ca
:103cd800214098001e4090000040e80010479800de
:103ce8001e409000e54f5000f4ff36000080fa00b7
:103cf800000006000200fa00004f78001e80fb005a
:103d08006600b90000007800e400400080a52000ab
:103d1800008040009000780000002f0000806000c4
:103d280001002200810f50000a0032000100220029
:103d3800810f50004b00360001002300810f500016
:103d48001800320001002f00810f500037003200a8
:103d58004700370070ab2000104078000041780021
:103d68001e80fb006600b90000007800e4004000f7
:103d780080a52000008040001000780067006000e7
:103d8800110020000008dd000040780000c0ea00b3
:103d9800004061008040780070ab20000148780046
:103da8003300370030ac20001080fb0041ac20000d
:103db8009180fb00c808dd00010070000001780058
:103dc8001e80fb006600b90000007800e400400097
:103dd80080a5200000804000100078000040780096
:103de8000080fb00110020000008dd000080ea00d0
:103df80000006100f10f20000101600031ac2000db
:103e080091417800e0c1610002c1710082487800e8
:103e1800c800de0040ac200010417800604161001d
:103e28008140710001487800110037001e80fb00b6
:103e38006600b90000007800e400400080a520007a
:103e480000804000900078000000210000804000c1
:103e5800e10f500005003e005668ef00000000002a
:103e680003003700000000000100370000000000d8
:103e78001e80fb006600b9008000780080a5200045
:103e88000080400080c0eb00014878001e80fb00e5
:103e98006600b90080007800c0a5200000804000be
:103ea8008000eb00010878001e80fb006600b90066
:103eb800000078008080e80080a520000080400095
:103ec80010407800e14f400013003a001e80fb00cc
:103ed8006600b9008000780080a5200000804000be
:103ee8001040900055e8b70055c8bf00e14f4000aa
:103ef8001c00320055c8bf000080fb006600b900f6
:103f080080007800a0a520000080400080c0eb0061
:103f180001487800130037001e80fb006600b900d6
:103f2800000078008080e80080a520000080400024
:103f3800104078008081fb001e80fb006600b900fd
:103f48008000780080a5200000804000104190008b
:103f58006618b9008000780080a520000080400025
:103f6800124098001e80fb006600b90080007800af
:103f780080a520000080400010409000e14f4000e4
:103f880014003a001e80fb006600b90000007800ab
:103f98008080e80080a52000008040001040780064
:103fa80054e8b70054c8bf00e14f40001c0032007d
:103fb80054c8bf000080fb006600b900800078008c
:103fc80080a520000080400080c0eb0011409800d0
:103fd800130037001e80fb006600b90080007800df
:103fe80080a5200000804000104090008081fb00e8
:103ff8001e80fb006600b900000078008080e800a1
:1040080080a5200000804000104178006618b900a3
:1040180080007800a0a520000080400002487800b9
:104028000080fa00000006000400fa00204798000b
:104038000040eb00004f78000a0037001e80fb00ac
:104048006600b9008000780080a52000008040004c
:10405800904078002e40900080cf5000b100320090
:104068001e4fe8001e407800e94f5000f3ff36006d
:104078000040eb00004f78004e0037001e80fb0028
:104088006600b9008000780080a52000008040000c
:1040980010407800e14f400045003a001e80fb00c8
:1040a8006600b9008000780080a5200000804000ec
:1040b800ae409000014878009e80fb0056c8bf00c3
:1040c8000004e000070032002e4090000080fb0052
:1040d80000014000605e28000000410010017800e7
:1040e800060037002e4090000080fb0000014000d1
:1040f8006052280000004100100178006608b900ed
:1041080080007800c0a520000080400002087800e8
:104118001e80fb006600b90080007800a0a5200082
:104128000080400080c0eb000148780054c8bf0000
:10413800e14f40000b003a009e4078004285200085
:10414800014978001e80fb006600b90080007800f5
:1041580080a520000080400080c0eb00114098003e
:104168000f00370055c8bf000080fb006600b9008b
:1041780080007800a0a52000008040001e4878003c
:104188001e80fb0052852000124178006600b900ad
:104198008000780080a52000008040001240980030
:1041a8009e407800528520000149780004003700bd
:1041b8001e4fe8001e407800e94f5000afff360060
:1041c8001e80fb006600b90000007800e400400093
:1041d80080a52000008040009000780000002f009b
:1041e8000080600001002200810f50000a003200a8
:1041f80001002200810f50004c003600010023000e
:10420800810f50001700320001002f00810f50006d
:10421800350032004800370070ab200010407800ad
:10422800004178001e80fb006600b900000078009d
:10423800e400400080a520000080400010007800c5
:1042480067006000110020000008dd0000407800d1
:10425800004071008040780070ab20000148780071
:104268003500370030ac20001080fb0041ac200046
:104278009180fb00c808dd00010070000001780093
:104288001e80fb006600b90000007800e4004000d2
:1042980080a52000008040001000780000407800d1
:1042a8000080fb00110020000008dd000200700003
:1042b800f10f20000101600031ac2000914178002d
:1042c800e0c1610002c1710082487800c800de00c8
:1042d80040ac2000104178006041610081407100cd
:1042e80001487800140037001e80fb006600b90002
:1042f80000007800e400400080a520000080400015
:10430800900078000000210000804000e10f50007c
:1043180008003e0010c0b30056e8b70000000000d7
:10432800050037000000000003003700000000000f
:1043380001003700000000000080fa0000000600bd
:104348000000fa00a600070014c8bf000004e0003f
:104358000100320015c8bf000040fe005120800057
:1043680000022000008060000000e00002003a0027
:1043780010c0b30041000700d200070010c0b3000e
:104388000080fa00000006000000fa0014c8bf0010
:104398000004e0003600320015c8bf000004e00049
:1043a8003300320040208000620060000000e0001e
:1043b800010032000824a90075000700000420004d
:1043c8000020880000000000012080000004200078
:1043d800008060000000e000fbff320000042000c5
:1043e8000020880000000000012080000004200058
:1043f800008060000000e000fbff320000042000a5
:104408000020880000000000012080000004200037
:10441800008060000000e000fbff32001444a800a8
:104428000004200000208800000000000120800017
:1044380000042000008060000000e000fbff320064
:1044480000042000002088000000000001208000f7
:1044580000042000008060000000e000fbff320044
:104468001444a9005700070010c0b300010037002a
:104478000040eb000080fa00000006000400fa008b
:104488002047980040208000610060000000e000a4
:104498000b00320040208000620060000000e00055
:1044a80007003a0024c8bf00e34f5000040036005c
:1044b800202080004300de006140600032003700a9
:1044c8002e4090000004e0001d0032000824a900de
:1044d8000804a8002e0007000040eb00004f7800f9
:1044e80009003700000420000020880000000000b8
:1044f8000120800000042000008060000000e0002f
:10450800fbff32001e4fe8001e407800e44f5000c9
:10451800f4ff36000040eb00104798002020800090
:10452800680060000000e0000200320010c0b30024
:1045380010479800230007001e4090001200370023
:1045480040208000610060000000e00002003a00a6
:1045580000c0eb000c0037004020800062006000c3
:104568000000e00002003a00e0cfb3000600370088
:1045780024c8bf00e34f500002003e00d0cfb30074
:1045880001003700c0cfb3000080fa000000060029
:104598000000fa002e68ef001000fc00f104800013
:1045a80000042000008060000000e00002003200eb
:1045b80010c0b3002ee8b7009ec0a9000080fa0022
:1045c800000006000000fa002ec8bf000004e0004a
:1045d800010032009ec0a8000080fa00000006001a
:1045e8000400fa001e00fc0011028000000e2000ea
:1045f800008060003041880011028000000e200019
:10460800010070001002880040092000100798007f
:104618000000eb00000f78000e0037001e0090002d
:10462800900078001e0078000001400040b0200093
:1046380000004100010878001e0090008000eb0097
:10464800010878001e0090000080e800100798001c
:104658001e0fe8001e007800e70f5000efff36003d
:1046680060208000404188000c24ef00102080006a
:10467800504188000224ef00700680004800de00e8
:10468800674060000080fb00604188000001200056
:104698000020880000022000502088008ec0a90059
:1046a8000284a80071068000f08f2f00008060004f
:1046b80000a0a000700688009ec0a8000080fa0034
:1046c800000006000400fa004009200010079800c6
:1046d8000000eb00000f78000b0037001e00780088
:1046e8008000400040b0200000804000900078002a
:1046f8001e009000010878001e0090000080e8006d
:10470800100798001e0fe8001e007800e70f500001
:10471800f2ff360040418000602088005041800050
:1047280010208800604180000040780067406000e9
:104738000080fb00670060004800dd007206800012
:10474800f18f2f0081006100010070007006880061
:1047580011028000f0f12f0080806000304180005d
:10476800010070003041880030418000100288004c
:104778000080fa00000006000200fa00000f78002e
:104788001e007800e20f50000c003200e20f5000cb
:1047980003003e00e10f5000060032000d00370014
:1047a800e30f500007003200e40f5000070032000a
:1047b800080037008f01a800060037008ee1a80026
:1047c800040037008461a800020037008441a80073
:1047d800000000000080fa00000006000200fa0055
:1047e800000f78001e007800e20f50000c00320025
:1047f800e20f500003003e00e10f500006003200b7
:104808000d003700e30f500007003200e40f50009e
:1048180007003200080037008f01a90006003700a2
:104828008ee1a900040037008461a9000200370066
:104838008441a900000000000080fa000000060082
:104848000200fa00000f78001e007800e20f500006
:1048580018003200e20f500003003e00e10f500044
:10486800060032003d003700e30f50001f00320001
:10487800e40f50002b00320038003700700c800025
:104888004800de00614060000004a2006140600052
:104898000080fb00610060004800dd00720c8000b1
:1048a800f1ef2f008100610001007000700c88009a
:1048b8002a003700700c80004700de00614060006d
:1048c8000004a200614060000080fb0061006000fd
:1048d8004700dd00720c8000f1f72f0081006100b5
:1048e80001007000700c88001c003700200c80004c
:1048f8004300de00614060000004a20061406000e7
:104908000080fb00610060004300dd00220c800095
:1049180071ff2f008100610001007000200c8800e9
:104928000e003700200c80004200de00614060006d
:104938000004a200614060000080fb00610060008c
:104948004200dd00220c8000b1ff2f0081006100d1
:1049580001007000200c8800000000000080fa00b0
:10496800000006000200fa00000f78001e00780020
:10497800e20f500013003200e20f500003003e0027
:10498800e10f50000600320027003700e30f500007
:1049980015003200e40f50001b00320022003700df
:1049a800710c8000001020000080600000f0a7005b
:1049b8000000ea000000ea004f00de000040780036
:1049c8001a003700710c8000000820000080600089
:1049d80000f0a7000000ea000000ea004f00de0037
:1049e8000040780011003700200c8000680060004b
:1049f80000f0a7000000ea000000ea004f00de0017
:104a08000040780009003700200c80006400600036
:104a180000f0a7000000ea000000ea004f00de00f6
:104a280000407800010037000040eb000080fa00e9
:104a3800000006000200fa00000f78001e0078004f
:104a4800e20f50000c003200e20f500003003e005d
:104a5800e10f5000060032000d003700e30f500050
:104a680007003200e40f500007003200080037004a
:104a78008b01a900060037008ae1a900040037006d
:104a88008061a900020037008041a90000000000f1
:104a98000080fa00000006000000fa0060aa20006a
:104aa800104078007f406000e14f500069003a00f4
:104ab800a0aa2000104078000004e00067003a0037
:104ac80070aa200010407800e64f500022003a00fb
:104ad80090aa2000104078000080fb0021022000ee
:104ae800810f50001100320031022000810f500068
:104af8001600320011022000810f500016003a0003
:104b080002c8bf00e14f500012003a00a06c280014
:104b1800a054880090002000c054880060a920009c
:104b280001ccb300014878000b003700e07328007f
:104b3800a0548800e0072000c054880060a9200025
:104b480001ccb300014878000300370000000000e2
:104b5800010037000000000060aa20001040780023
:104b680002c6b3008240600000c2b30080cf50008c
:104b78003c003a0070aa2000104078000080fb003a
:104b8800e30f500023003200e30f500005003c0003
:104b9800e10f500035003200e20f500009003200ea
:104ba80033003700ea0f50000e003200eb0f5000c0
:104bb80020003200e90f50002d003a005300070092
:104bc8002b003700c0842000a0548800100020006b
:104bd800c054880060a9200011ccb30001487800b7
:104be8002300370060a9200001c8b30001487800fd
:104bf80090aa2000104078004ce8b700c18420003b
:104c08009140780080aa2000104078006b000700cf
:104c180017003700d0842000a0548800100020001e
:104c2800c054880060a9200011c8b300014878006a
:104c38000f00370060a9200001c8b30001487800c0
:104c480080aa2000104078004de8b700000000005e
:104c580007003700000000000500370000000000d2
:104c680003003700000000000100370000000000ca
:104c78000080fa00000006000000fa003028ef006b
:104c8800401f2000a04188000200370070428000c9
:104c9800c0418800c141800070428000808f500070
:104ca800faff3a00d1c1b30010c0b300f0f1070019
:104cb80023c0b30002ac20008040eb0010c0b3005a
:104cc80008f2070090418800dbfb07000080fa002b
:104cd800000006000000fa000080fa00000006004c
:104ce8000000fa000080fa00000006000000fa0048
:104cf800e0aa20009040780000ac2000014878002d
:104d0800f7ff07000080fa00000006000000fa0024
:104d1800e0aa2000f10f200001016000a1a92000f5
:104d280091417800e0c1610002c1710082487800b9
:104d3800c800de00b0a92000104178006041610081
:104d48008140710001487800d0a920009040780087
:104d5800e0c060000134a00001487800e0a920000c
:104d680090407800e0c0600001487800a067220009
:104d7800f10f200001016000f1a9200091417800a5
:104d8800e0c1610002c1710082487800c800de00fd
:104d980000aa200010417800604161008140710044
:104da80001487800c0a92000904078000174a00054
:104db800014878000080fa00000006000200fa00ae
:104dc800004f7800114798001e407800e14f5000ce
:104dd80003003a001e4090000080fb00a0418800bc
:104de8000080fa00000006000400fa00000f7800b6
:104df800214798001e007800100178001e007800f6
:104e0800204090008080fb00810041002e419000ee
:104e1800824878008040e8001e0078002140980011
:104e28000080fa00000006000400fa00000f780075
:104e3800214798001e007800100178001e007800b5
:104e4800204090008080fb00810041002e419000ae
:104e5800824878008040e8001e00780021409800d1
:104e68000080fa00000006000400fa00100798000d
:104e78001e009000100178001e0090003040900045
:104e88008080fb0081004100114f78008040e800dd
:104e98001e009000314098001e4078000080fa0003
:104ea800000006000200fa00000f78001e007800db
:104eb800a04090001e007800314098000080fa0061
:104ec800000006000400fa00000f7800110798009f
:104ed8001e0078009e009000010878001e007800ef
:104ee8008040eb00214098001e0078008040eb00d5
:0c4ef800314098000080fa000000060025
:020000040000fa
:104f0400940a000022000000800000000008000055
:104f14002600000080000000000c000020000000bb
:104f2400800000004c080000020000008000000027
:104f34004e0800000200000080000000040b000086
:104f44001000000080000000260800000a00000095
:104f540080000000f00a000014000000800000003f
:104f6400420800000600000080000000b60a0000ad
:104f74001e00000080000000300800000a0000004d
:104f840080000000d40a00001c0000008000000023
:104f94005008000002000000820000000100000030
:104fa4003a080000080000008000000052080000d9
:104fb4000200000080000000580800000002000009
:104fc4008000000048080000040000008000000089
:104fd400580a00003c000000800000005408000053
:104fe4000200000082000000ffff000056080000dd
:0c4ff4000200000080000000000000002f
:020000040000fa
:105000000600fa00000f78001107980022079800a8
:105010001e00780021072000810f50002e00320072
:1050200021072000810f50000a003c00e20f5000d1
:105030002b003200e20f500003003c00e10f500053
:105040002100320027003700e30f5000200032001b
:105050002400370041072000810f50001600320065
:1050600041072000810f5000040035005107200047
:10507000810f50000c0032001a0037001c0007009e
:1050800071428000f0ff2700808f50000400320042
:10509000704280000000e800704288001100370074
:1050a0004e28ef000f00370011000700100020000d
:1050b000ad0007000b0037000d00070020002000a6
:1050c000a900070007003700edfe070005003700c4
:1050d00073fe0700030037000000000001003700e6
:1050e0000000000010c0b3000080fa0000000600bd
:1050f0000000fa0040208000620060000000e00034
:10510000030032000000eb00b6fd0700300037005e
:105110000140800000022000808f500013003a0000
:1051200090428000e10f500003003a000000eb00c5
:1051300093fd07002300370091428000b004200057
:10514000808f500003003a000000eb00a5fd07002f
:105150001c0037009142800060092000808f5000c1
:10516000150036005228ef001600370090428000ec
:10517000e10f500003003a000000eb0080fd070043
:10518000100037009142800020032000808f5000e3
:1051900003003a000000eb0092fd07000900370011
:1051a00091428000603b2000808f50000400360058
:1051b0005228ef0003003700000000000100370014
:1051c00000000000904280000000e800904288004b
